:03210000022106B3
:03215F0002210357
:0321030002216254
:10216200758F0175EEFF75FEFF75DE4843D940900D
:1021720000381221A875E90075F900D2DE7E007FD1
:1021820000C3EE9405EF648094805015900035C032
:1021920007C0061221A8D006D0070EBE00E30F80AA
:1021A200E02290000022AF83E582900400F0EFA3CA
:1021B200F03099FD900400E0FEA3E0FF8E99C299F1
:1021C2008E828F832210980280FBAE997F008E82CE
:0321D2008F8322D6
:06213500E4787FF6D8FDFE
:102113007900E94400601B7A009021D5780275A00C
:1021230004E493F2A308B8000205A0D9F4DAF27527
:02213300A0FF0B
:10213B007800E84400600A790075A004E4F309D83C
:10214B00FC7802E84400600C7901900400E4F0A3F1
:04215B00D8FCD9FAD9
:0D2106007581071221A4E582600302210308
:00000001FF
