:03210000022106B3
:03215F0002210357
:0321030002217442
:10216200E5829013A0F0E0FF90FFFF75F000EF0210
:102172002EE59013E1E4F0A3F0901483F0A3F07E37
:10218200007F00C007C0067474C0E0743DC0E074F4
:1021920080C0E0123330158115811581122CA2AC5A
:1021A20082AD83D006D0078C028D03C3EA9420EB64
:1021B200940040408C028D03C374809A740C9B403F
:1021C200338C028D03EA540F702A8C828D83C007F0
:1021D200C006C005C004123045AA82AB83D004D029
:1021E20005D006D0078B017B009013A3EAF0E9A388
:1021F200F0EBA3F09013A3E0F9A3E0FAA3E0E94A1D
:102202007022C007C006C005C00474A9C0E0743DB6
:10221200C0E0122F0015811581D004D005D006D060
:10222200070222B8C007C006C005C00474C4C0E0DB
:10223200743DC0E0122F0015811581D004D005D065
:1022420006D0079013A3E0FAA3E0FB9013E3EAF0B1
:10225200EBA3F09013A3E0F9A3E0FAA3E0EC29F9D1
:10226200ED3AFA90140BE9F0EAA3F0901433ECF093
:10227200EDA3F0EE2EFAEF33FBEA24E3F582EB3422
:1022820013F583E0FAA3E0FBC007C006C005C00453
:10229200C002C00374DFC0E0743DC0E07480C0E0DF
:1022A200123330E58124FBF581D004D005D006D06D
:1022B200070EBE00010F8C028D03C3EA94BCEB949F
:1022C2000740030223AF9013A3E0F9A3E0FAA3E0CF
:1022D200FBE94A70030223AF8C828D83C007C006DC
:1022E200C005C004123045AA82AB83D004D0058A4F
:1022F200088B09750A009013A6E508F0E509A3F01A
:10230200E50AA3F0A808AB099013E5E8F0EBA3F007
:10231200EC2508F9ED3509FA90140DE9F0EAA3F07D
:10232200901435ECF0EDA3F09013A1ECF0EDA3F0D6
:102332007401C0E0743EC0E0122F0015811581D0F7
:1023420006D007EE2EFCEF33FDEC24E3F582ED34EC
:1023520013F583E0FCA3E0FDC007C006C004C0057E
:10236200741EC0E0743EC0E07480C0E0123330E5F9
:102372008124FBF581D006D0079013DF74012EF083
:10238200E43FA3F090145BE4F0A3F09013A1E0FC0F
:10239200A3E0FD901485ECF0EDA3F09013A1E0FC16
:1023A200A3E0FD901487ECF0EDA3F0802E9013A330
:1023B200E0FBA3E0FCA3E0FD8B828C838DF0C007E1
:1023C200C006122D8E7442C0E0743EC0E0122F008F
:1023D20015811581D006D0070221859013DFE0F523
:1023E20012A3E0F5137C007D00C005C004746EC02A
:1023F200E0743EC0E07480C0E01233301581158174
:10240200158174AAC0E0743EC0E07480C0E012334B
:102412003015811581158174CFC0E0743EC0E0741F
:1024220080C0E012333015811581158174F2C0E04D
:10243200743EC0E07480C0E01233301581158115FE
:10244200817425C0E0743FC0E07480C0E012333074
:102452001581158115817460C0E0743FC0E07480FD
:10246200C0E01233301581158115817497C0E07474
:102472003FC0E07480C0E0123330158115811581B0
:1024820074D6C0E0743FC0E0122F0015811581128E
:102492002D63858214858315D004D0050CBC000100
:1024A2000D743FB51406E4B51502800C901483E058
:1024B2002401F0A3E03400F0C005C004C004C0054C
:1024C20074EDC0E0743FC0E07480C0E0123330E5C8
:1024D2008124FBF581851482851583122D71D00428
:1024E200D005A814A915C3746098E4994003022585
:1024F200E5A814A915C3E8947BE9940040030225DA
:10250200E5901485E0F8A3E0F94870030225E5C0E0
:1025120004C0057582AAC005C004122162D004D08D
:10252200059013A3E0F508A3E0F509A3E0F50A90EE
:1025320013E1E0F50BA3E0F50CE50B2508F508E542
:102542000C3509F509AC14850882850983850AF0E2
:10255200EC122EE59013A3E0F9A3E0FCA3E0FDE565
:102562000B29F9E50C3CFCC005C004C001C004C045
:10257200057413C0E07440C0E07480C0E0123330D0
:10258200E58124FAF581D004D0059013E174012588
:102592000BF0E4350CA3F09013E1E0FCA3E0FD9016
:1025A200145BECF0EDA3F09013A1E0F8A3E0F9E8DE
:1025B200C39CF8E99DF9901485E8F0E9A3F0C00501
:1025C200C004C004C0057439C0E07440C0E0748027
:1025D200C0E0123330E58124FBF581D004D005D070
:1025E20005D004742BB51406E4B515028003022746
:1025F20078C004C0057582BBC005C0041221627494
:1026020066C0E07440C0E07480C0E01233301581CF
:1026120015811581122CA2858208858309D004D0E8
:1026220005AC08AD09C3741E9CE49DD005D00440DE
:1026320003022778C004C005AC08AD09C3EC942C92
:10264200ED9401D005D0044003022778C004C005F0
:102652009014C3E512F0E513A3F09000031231AE1B
:10266200AC82AD83EC24A3F50BED3413F50C850895
:1026720082850983123045AC82AD838C0D8D0E7537
:102682000F00850B82850C83E50DF0E50EA3F0E5C6
:102692000FA3F0E5122512F510E51333F511E5103D
:1026A20024E3F582E5113413F583A90DAC0EE9F0AC
:1026B200ECA3F0E510240BF582E5113414F583E563
:1026C20008250DF9E509350EFCE9F0ECA3F0E5105B
:1026D2002433F582E5113414F583E508F0E509A306
:1026E200F0E510245BFCE5113414FD8C828D83E44B
:1026F200F0A3F0E5102485F8E5113414F98C828DED
:1027020083E0FCA3E0FDE508C39CFCE5099DFD8890
:10271200828983ECF0EDA3F0C005C004C012C0139F
:1027220074B6C0E07440C0E0122F00E58124FCF5CD
:1027320081D004D005850B82850C83E0F9A3E0FCEF
:10274200A3E0FDC005C004C001C004C005C012C0A2
:102752001374D8C0E07440C0E07480C0E01233301B
:10276200E58124F8F581D004D0050512E4B5120202
:102772000513D005D004742DB51406E4B5150280F6
:1027820003022866C004C0057582CCC005C00412CD
:10279200216274FCC0E07440C0E07480C0E0123377
:1027A20030158115811581122CA285821085831125
:1027B200D004D005AC10AD11C3E5129CE5139DD039
:1027C20005D0045003022849E51045116079C00480
:1027D200C0059014C3E510F0E511A3F090000312B8
:1027E20031AEAC82AD83EC24A3F582ED3413F583D4
:1027F200E0F9A3E0FCA3E0FD89828C838DF0C005A3
:10280200C004122D8ED004D005E5102510FCE51170
:1028120033FDEC24E3F582ED3413F583E4F0A3F009
:10282200C005C004C010C0117436C0E07441C0E0DD
:102832007480C0E0123330E58124FBF581D004D0EE
:1028420005D005D004801DC005C0047450C0E074DA
:1028520041C0E07480C0E0123330158115811581CA
:10286200D004D005743FB51406E4B5150280030206
:102872002A857582DDC005C004122162747AC0E027
:102882007441C0E07480C0E01233301581158115A7
:102892008174C3C0E07441C0E07480C0E012333080
:1028A200158115811581D004D005A812A913E4F56C
:1028B20010F511C004C005AC10AD11C3EC98ED9930
:1028C200D005D0044003022988E5102510F50DE556
:1028D2001133F50EE50D24E3F582E50E3413F5838D
:1028E200E0F50BA3E0F50CE50B450C700302297D26
:1028F200C004C005E50D2485F582E50E3414F58388
:10290200E0FCA3E0FDE50D245BF582E50E3414F551
:1029120083E0FEA3E0FFE50D2433F582E50E3414D7
:10292200F583E0F508A3E0F509E50D240BF582E552
:102932000E3414F583E0FAA3E0FBC005C004C00125
:10294200C000C004C005C006C007C008C009C0025C
:10295200C003C00BC00CC010C0117406C0E07442AA
:10296200C0E07480C0E0123330E58124F1F581D0FB
:1029720000D001D004D005D005D0040510E4B51074
:102982000205110228B5C005C004901483E0C0E01E
:10299200A3E0C0E07426C0E07442C0E07480C0E0EE
:1029A200123330E58124FBF581901483E4F0A3F027
:1029B200745AC0E07442C0E07480C0E01233301533
:1029C2008115811581D004D0059013E1E0FEA3E0CA
:1029D200FF7A007B008A008B01C3E89EE99F4003D7
:1029E200022A7EC004C0059013A3E0F8A3E0F9A375
:1029F200E0FDEA28F8EB39F9888289838DF0123DEF
:102A020052F87D00C007C006C005C004C003C00262
:102A1200C000C0057471C0E07442C0E07480C0E0C0
:102A2200123330E58124FBF581D002D003D004D0EB
:102A320005D006D007BA4005BB00028006D005D0FB
:102A4200048031D005D004C007C006C005C004C050
:102A520003C0027476C0E07442C0E07480C0E01229
:102A62003330158115811581D002D003D004D005F1
:102A7200D006D0070ABA00010B0229D79013E1E46D
:102A8200F0A3F0743DB51406E4B515028003022BE1
:102A9200AB7582E5C005C0041221627478C0E0748F
:102AA20042C0E07480C0E012333015811581158177
:102AB200D004D0059013E1E0FEA3E0FF7A007B0092
:102AC2008A008B01C3E89EE99F4003022BAB90145E
:102AD200C57410F0E4A3F08A828B83C007C006C0DD
:102AE20005C004C003C0021231CEE5828583F0D056
:102AF20002D003D004D005D006D00745F0704CC0F8
:102B020004C0059013A3E0F8A3E0F9A3E0FDEA28CE
:102B1200F8EB39F9C007C006C005C004C003C00203
:102B2200C000C001C00574ABC0E07442C0E0748054
:102B3200C0E0123330E58124FAF581D002D003D00F
:102B420004D005D006D007D005D004C004C005903B
:102B520013A3E0F8A3E0F9A3E0FDEA28F8EB39F9C2
:102B6200888289838DF0123D52F87D00C007C0062D
:102B7200C005C004C003C002C000C00574B4C0E0F8
:102B82007442C0E07480C0E0123330E58124FBF56A
:102B920081D002D003D004D005D006D0070ABA00F3
:102BA200010BD005D004022AC27440B51406E4B564
:102BB200150280030223EB7582ACC005C00412210A
:102BC2006274B8C0E07442C0E07480C0E012333076
:102BD200158115811581D004D005AE12AF137A008C
:102BE2007B008A008B01C3E89EE99F4003022C947C
:102BF200C004C0059014C3EAF0EBA3F0900003C038
:102C020007C006C005C004C003C0021231AEA882CC
:102C1200A983D002D003D004D005E824A3F582E929
:102C22003413F583E0F8A3E0F9A3E0FD88828983F9
:102C32008DF0C005C004C003C002122D8ED002D098
:102C420003D004D005EA2AFCEB33FDEC24E3F58241
:102C5200ED3413F583E4F0A3F0C005C004C003C053
:102C620002C002C00374EAC0E07442C0E07480C0D3
:102C7200E0123330E58124FBF581D002D003D00489
:102C8200D005D006D0070ABA00010BD005D0040245
:102C92002BE4C005C004122174D004D0050223EB3A
:102CA2007402C0E07443C0E0122F001581158190B8
:102CB20014ADE4F0A3F07E017F00C007C006122D20
:102CC20063AC82AD83D006D0078C028D03C3742F10
:102CD2009AE49B505E8C028D03C3EA943AEB940013
:102CE20050519014ADE0FAA3E0FB9014C3EAF0EB6C
:102CF200A3F090000AC007C006C005C0041231AE9E
:102D0200AA82AB83D004D005EC24D0F8ED34FFF9CD
:102D12009014ADE82AF0E93BA3F08C828D83122D4A
:102D220071D006D0070EBE00010FC3EE9405EF94DA
:102D32000040879014ADE0FEA3E0FFC007C006C0CC
:102D420006C0077435C0E07443C0E07480C0E0126E
:102D52003330E58124FBF581D006D0078E828F8344
:102D62002210980280FBAE997F008E828F8322AF61
:102D720083E5829014AFF0EFA3F010990280FB90EC
:0C2D820014AFE0FEA3E08E999000002248
:103D7200A00F23232320456E746572206120766193
:103D82006C6964206275666665722073697A652063
:103D9200666F7220627566666572203020616E649D
:103DA200203120232323000A200D4D616C6C6F63A8
:103DB2002062756666657230206661696C65640AA8
:103DC2000D000A200D4D616C6C6F63206275666692
:103DD200657230207061737365640A0D000A200DEC
:103DE200427566666572203020637265617465642F
:103DF200206174203A3058302578200A200D000ABC
:103E0200200D4D616C6C6F63206275666665723160
:103E120020706173736564200A200D000A200D4230
:103E2200756666657220312063726561746564200F
:103E32006174203A203A3058302578200A200D004B
:103E42000A200D4D616C6C6F632062756666657247
:103E520031206661696C656420736F207265656EDE
:103E62007465722076616C75650A0D000A0D202357
:103E72002323232323232053656C656374206672F6
:103E82006F6D2074686520636F6D6D616E64206F65
:103E92007074696F6E732062656C6F7720232323C1
:103EA20023232323232323000A200D20312E20271E
:103EB2002B27205369676E202D2D3E2041646420FC
:103EC20061204E657720427566666572000A200D94
:103ED20020322E20272D27205369676E202D2D3E5C
:103EE20020436C65616E20612042756666657200D2
:103EF2000A200D20332E20273F27205369676E208A
:103F02002D2D3E20446973706C61792061204465D7
:103F12007461696C65642048656170205265706FD8
:103F22007274000A200D20342E2027402720536966
:103F3200676E202D2D3E20436C65617220616C6C92
:103F42002042756666657273204461746120616EF9
:103F52006420537461727420416761696E000A20A3
:103F62000D20352E202761272D277A2720202D2D61
:103F72003E2053746F7265207468657365204368D0
:103F8200617261637465727320696E204275666640
:103F92006572203000232323232323232323232377
:103FA20023232323232323232323232323232323DF
:103FB20023232323232323232323232323232323CF
:103FC20023232323232323232323232323232323BF
:103FD200232323000A200D456E74657220636861F5
:103FE200726163746572200A200D000A200D546FFD
:103FF20074616C206E756D626572206F66206368F5
:104002006172616374657273203D2564200A200D1C
:1040120000202D2D3E20546869732063686172610F
:10402200637465722069732073746F7265642061B2
:1040320074202570200A000A200D20546F74616CD0
:10404200206E756D626572206F662073746F726187
:1040520067652063686172616374657273203D25D0
:1040620064200A000A200D20596F75206E65656470
:1040720020746F20656E7465722061206E756D62AA
:104082006572206265747765656E20333020746FC7
:104092002033303020627974657320746F2063722C
:1040A200656174652061206E65772062756666655C
:1040B20072200A000A200D204E6577204D616C6C3B
:1040C2006F63206275666665722025642070617375
:1040D2007365640A0D000A200D20416464726573E1
:1040E20073206F6620627566666572206E6F20258A
:1040F200643A202570200A200D000A200D20596FF5
:1041020075206E65656420746F20656E746572201B
:10411200612076616C696420627566666572206EE4
:10412200756D62657220746F20636C6561722069BF
:1041320074200A000A200D204275666665722025E9
:104142006420436C6561726564200A200D000A20B8
:104152000D20596F7520656E74657265642061204B
:1041620077726F6E6720427566666572206E756D36
:10417200626572200A200D000A200D2023232323CA
:1041820023232323232323232323232323232323FD
:104192002323232323232048656170205265706FF7
:1041A2007274202323232323232323232323232340
:1041B2002323232323232323232323232323200AE9
:1041C200000A0D42756666657209537461727469FC
:1041D2006E6720416464720945736E64696E67207C
:1041E200416464720953697A650953746F72616735
:1041F2006543686172092046726565205370616388
:1042020065200A000A0D256409305830257809090D
:1042120030583025780909202564090925640925C3
:10422200640A0D000A200D20546F74616C206E6FB9
:104232002E206F66206368617261637465727320F9
:104242006166746572203F207369676E202D2D3E72
:10425200202564200A200D000A200D44617461208B
:1042620061742042756666657220303A2009002525
:10427200632020000A000A200D2023232323232366
:1042820023232323204461746120496E736964658A
:104292002042756666657220302023232323232360
:1042A2002323232323232323000A200D20257020E8
:1042B2003A00257820000A200D20232323232323DC
:1042C2002323232320416C6C20427566666572733A
:1042D20020436C65617265642023232323232323F7
:1042E20023232323232323000A200D2042756666FD
:1042F200657220256420436C6561726564200A0042
:104302000A200D20456E7465722061206E756D6203
:10431200657220696E2076616C69642072616E67D5
:1043220065206173206D656E74696F6E6564200A25
:10433200200D000A2053697A65204E756D62657200
:08434200203D202564200A0043
:02435500000066
:102D8E00AFF0AE83E5829014B1F0EEA3F0EFA3F0B6
:102D9E009014B1E0FDA3E0FEA3E09014B1E0F5F0D5
:102DAE00A3E045F07001229014B6E4F0A3F0901465
:102DBE00BBE0FBA3E0FC9014B4EBF0ECA3F090149A
:102DCE00B874BBF07414A3F09014B4E0FBA3E0FC51
:102DDE004B60418B018C02C003C0048D008E04C376
:102DEE00E998EA9CD004D003502A9014B6EBF0EC8C
:102DFE00A3F074022BFBE43CFC9014B8EBF0ECA3B4
:102E0E00F08B828C83E0FBA3E0FC9014B4EBF0EC2F
:102E1E00A3F080B49014B4E0FEA3E0FF9014B1E0F0
:102E2E00FBA3E0FCA3E0EB24FEFBEC34FFFC7402FE
:102E3E002BFAE43CFD8A828D83EEF0EFA3F0901422
:102E4E00B8E0F8A3E0F988828983EBF0ECA3F08B6D
:102E5E00828C83E0F8A3E0F9EEB50033EFB5012FD5
:102E6E0088828983A3A3E0FEA3E0FF8A828D83EE8E
:102E7E00F0EFA3F08B828C83E0FEA3E0FF8E828FB7
:102E8E0083E0FEA3E0FF8B828C83EEF0EFA3F09045
:102E9E0014B6E0FEA3E0FF4E603C8E828F83E0F816
:102EAE00A3E0F9E8B5032FE9B5042B8B828C83E000
:102EBE00FBA3E0FC8E828F83EBF0ECA3F074022E6A
:102ECE00FEE43FFF8A828D83E0FAA3E0FD8E828FBF
:072EDE0083EAF0EDA3F022EE
:06213500E4787FF6D8FDFE
:102113007902E94400601B7A01904355780575A064
:1021230015E493F2A308B8000205A0D9F4DAF27516
:02213300A0FF0B
:102EE50020F71130F6138883A88220F509F6A88308
:102EF5007583002280FEF280F5F022C018858118C6
:102F0500E51824FDF8868318868218E493A324DB4C
:102F1500600C24256005122FEE80F0023006D2D514
:102F2500E493A3C083C082B4731486F01886831813
:102F3500868218123D526054A3122FEE80F5B463B9
:102F45000818E618122FEE8043B46417E630E746FA
:102F550018E6F42401F608E6F43400F6742D122F71
:102F6500EE8033B4782D868318868218E4122FDF1D
:102F7500E583122FDEE583122FDFE582122FDEE5D2
:102F850082122FDF30D5057430122FEED082D08318
:102F9500022F10B475F6E6FA18E6F9187C107D27AD
:102FA500122FC9FF7CE87D03122FC9C4F5837C6409
:102FB5007D00122FC94283E975F00A84C445F0F5F6
:102FC50082EF80A97B000BC3E99CF9EA9DFA50F6D4
:102FD5001BE92CF9EA3DFAEB22C4540F700320D506
:102FE5001FC2D52490D43440D4C083C082C0F0F52C
:102FF50082E8C0E0122D71D0E0F8D0F0D082D08305
:1030050022D018229014BB7400F07404A3F0903DF4
:1030150072E493FE740193FF1EBEFF011FEE2400B0
:10302500FEEF3404FF900400EEF0EFA3F09014BB24
:10303500E0FEA3E0FF8E828F83A3A3E4F0A3F0223A
:10304500AF83E5829014BDF0EFA3F09014BBE0F5DB
:10305500F0A3E045F070031230099014BDE0FEA323
:10306500E0FF4E600E74022EFCE43FFDC3EC9EEDC6
:103075009F5004900000229014BD74022EF0E43F8E
:10308500A3F09014BDE0FEA3E0FFC3EE9404EF941B
:103095000050099014BD7404F0E4A3F09014BBE053
:1030A500FEA3E0FF9014BFEEF0EFA3F09014C174FF
:1030B500BBF07414A3F09014BFE0FEA3E0FF4E70C4
:1030C500030231AA8E828F83E0FCA3E0FD8C028D82
:1030D500038E008F01EAC398FAEB99FB8A008B01F6
:1030E5009014BDE0F516A3E0F517C3E89516E9952C
:1030F50017500302318774042516F8E43517F9C310
:10310500EA98EB99404C8E028F03E5162AFAE517EB
:103115003BFB8A828B83ECF0EDA3F074022AFCE47E
:103125003BFD8E828F83A3A3E0F8A3E0F98C828D0B
:1031350083E8F0E9A3F09014C1E0FCA3E0FD8C82E4
:103145008D83EAF0EBA3F08E828F83EAF0EBA3F098
:10315500801C9014C1E0FCA3E0FD8E828F83A3A3A5
:10316500E0FAA3E0FB8C828D83EAF0EBA3F09014E8
:10317500BFE0FCA3E0FD74022CFCE43DFD8C828DD8
:10318500832274022EFEE43FFF9014C1EEF0EFA3FC
:10319500F08E828F83E0FEA3E0FF9014BFEEF0EF88
:1031A500A3F00230BB90000022AA83AB828BF09083
:1031B50014C3E0A4F8A9F08AF0E0A429F98BF0A3E0
:1031C500E0A429F58388822222AF83E5829014C783
:1031D500F0EFA3F09014C7E0FEA3E0FF30E709C3CA
:1031E500E49EFCE49FFD80048E048F059014C5E0E9
:1031F500FEA3E0FF30E709C3E49EFAE49FFB8004E9
:103205008E028F039014C9EAF0EBA3F08C828D83B4
:10321500123236AE82AF839014C7E0A3E030E70CDC
:10322500C3E49EFCE49FFD8C828D83228E828F8376
:1032350022AF83E5829014CBF0EFA3F09014CDE498
:10324500F09014CBE0FEA3E0FF7D009014C9E0FBF5
:10325500A3E0FC235401FA7036EB2BFBEC33FC9016
:1032650014C9EBF0ECA3F09014C9E0FBA3E0FCC398
:10327500EE9BEF9C5011ECC313CB13CBFC9014C900
:10328500EBF0ECA3F080080D9014CDEDF080BC9030
:1032950014CDE0FF9014CBE0FDA3E0FE9014C9E04F
:1032A500FBA3E0FCC3ED9BEE9C400B9014CBEDC360
:1032B5009BF0EE9CA3F09014C9E0FDA3E0C313CDF1
:1032C50013CDFE9014C9EDF0EEA3F08F061FEE703E
:0D32D500C39014CBE0FEA3E08E82F58322AF
:10213B007800E84400600A790075A004E4F309D83C
:10214B00FC7805E84411600C7912900400E4F0A3CC
:04215B00D8FCD9FAD9
:1032E200C0188581187E008E83122D71D01822AFEE
:1032F200F0AE83E5829014CFF0EEA3F0EFA3F0904E
:1033020014CFE0FDA3E0FEA3E0FF9014CEE0FC901A
:1033120014E3E4F0A3F0A3F09014E6EDF0EEA3F0D2
:10332200EFA3F09014E9ECF09032E2023439C018C5
:10333200E581F51824FBFF9014E3E4F0A3F0A3F079
:10334200E51824FBF89014E6E6F008E6A3F008E698
:10335200A3F09014E9EFF09032E2123439D018223F
:10336200E5829014DFF0E0FF9014D5E0C0E0A3E026
:10337200C0E0A3E0C0E012337D800D9014D3E0C022
:10338200E0A3E0C0E08F822215811581158190149F
:10339200DDE02401F0A3E03400F022E5829014E0A5
:1033A200F0E02430FF24C6500D74072FFF9014D292
:1033B200E060034307208F82023362E5829014E1CA
:1033C200F0E0FFC4540FF582C00712339DD00753BB
:1033D200070F8F8202339DE5829014E2F09014D899
:1033E200E0FCA3E0FDA3E0FEA3E0FF9014DCE0FB21
:1033F2007523209014E2E0F98B00E828F8EF2354BB
:103402000148FBEC2CFCED33FDEE33FEEF33FFC342
:10341200EB994007EBC399FB430401E52314FA8AB5
:103422002370D59014D8ECF0EDA3F0EEA3F0EFA347
:10343200F09014DCEBF022AF83E5829014EAF0EF17
:10344200A3F09014EAE0FEA3E0FF9014D3EEF0EFB5
:10345200A3F09014E3E0FDA3E0FEA3E0FF9014D5F7
:10346200EDF0EEA3F0EFA3F09014DDE4F0A3F09002
:1034720014E6E0FDA3E0FEA3E0FF8D828E838FF0D1
:10348200123D52FC9014E674012DF0E43EA3F0EFDD
:10349200A3F0EC7003023D2EBC25028003023D2600
:1034A2009014ECE4F09014EDF09014EEF09014EF20
:1034B200F09014F0F09014F1F09014F2F09014F3F4
:1034C200F09014F5F09014F6F0A3F09014F814F0C4
:1034D200A3F09014E6E0FDA3E0FEA3E0FF8D828E50
:1034E200838FF0123D52FBA3AD82AE839014E6EDC2
:1034F200F0EEA3F0EFA3F09014FCEBF0BB25088BE9
:1035020082123362023471BB300050030235D2EBB7
:1035120024C650030235D29014F8E0F519A3E0F561
:103522001A74FFB51963B51A60C005C006C00790CA
:1035320014F6E0FAA3E0FF9014C3EAF0EFA3F090D0
:10354200000AC005C0031231AEAE82AF83D003D0F1
:10355200058B027D00EA2EFEED3FFFEE24D0FEEF4A
:1035620034FFFF9014F6EEF0EFA3F0D007D006D0B0
:10357200059014F6E0F5F0A3E045F060030234DFB5
:103582009014ED7401F00234DFC005C006C007904C
:1035920014C3E519F0E51AA3F090000AC006C005AD
:1035A200C0031231AEAA82AF83D003D005D0067E0B
:1035B20000EB2AFAEE3FFFEA24D0FAEF34FFFF9045
:1035C20014F8EAF0EFA3F0D007D006D0050234DFFA
:1035D2009014FCE0FBBB2E2FC005C006C007901460
:1035E200F8E0FAA3E0FFBAFF05BFFF028009D007A7
:1035F200D006D0050234DFD007D006D0059014F8EB
:10360200E4F0A3F00234DFBB61004014EB248540F8
:103612000F9014FC74DF5BF09014D27401F08005FB
:103622009014D2E4F09014FCE0FBBB20028075BB46
:103632002B028067BB2D028059BB4202806FBB43C5
:1036420002807CBB44030238C9BB46030238EFBB8D
:1036520048030234DFBB49030238C9BB4A030234C0
:10366200DFBB4C028050BB4F030238D7BB50030272
:103672003837BB53028077BB54030234DFBB550398
:103682000238DFBB58030238E7BB5A030234DF02B9
:1036920038F79014EC7401F00234DF9014EE7401E8
:1036A200F00234DF9014EF7401F00234DF9014F171
:1036B2007401F00234DF9014F27401F00234DF90EE
:1036C20014F1E0600E9014E9E014F9F09014FCE7B4
:1036D200F0800F9014E9E024FEFFF08F019014FCBB
:1036E200E7F09014FCE0F58212336202390690147E
:1036F200E9E024FDFFF08F018705098706098707A6
:1037020019199014D8EDF0EEA3F0EFA3F08D828E8C
:10371200838FF0123D3A85821985831A9014F8E05E
:10372200FAA3E0FDBAFF0DBDFF0A9014F8E519F007
:10373200E51AA3F09014ECE0704B9014F6E0FAA3B3
:10374200E0FDC3E5199AE51A9D503A9014F6EAC3D2
:103752009519F0ED951AA3F09014F6E0FAA3E0FDA6
:103762008A068D071ABAFF011DEE4F60107582207E
:10377200C005C002123362D002D00580E39014F675
:10378200EAF0EDA3F09014F8E0F51CA3E0F51D902B
:1037920014D8E0FAA3E0FDA3E0FF8A828D838FF0C4
:1037A200123D52F51B603CC3E4951C7480851DF0EC
:1037B20063F08095F0502C151C74FFB51C02151D8A
:1037C200851B821233629014D8E0FAA3E0FDA3E0D5
:1037D200FF0ABA00010D9014D8EAF0EDA3F0EFA3AE
:1037E200F080AC9014ECE070030239069014F6E01D
:1037F200FEA3E0FFC3E5199EE51A9F4003023906C6
:103802009014F6EEC39519F0EF951AA3F09014F602
:10381200E0FEA3E0FF8E028F051EBEFF011FEA4DF0
:1038220070030238FE758220C007C006123362D0D0
:1038320006D00780E09014E9E024FDFDF08D0187B9
:103842001E09871F09872019199014D8E51EF0E573
:103852001FA3F0E520A3F09014DAE0FDBD80004044
:10386200089014FC7443F08020BD6000400890145E
:10387200FC7450F08013BD400040089014FC744961
:10388200F080069014FC7458F09014FCE0FDF58270
:10389200C00512336275823A123362758230123376
:1038A20062758278123362D005BD4902800EBD5026
:1038B2000280099014D9E0F5821233BD9014D8E049
:1038C200F5821233BD803D9014F07401F09014F52E
:1038D200740AF0802F9014F57408F080279014F584
:1038E200740AF0801F9014F57410F080179014F38E
:1038F2007401F0800F8B8212336280089014F6EE0E
:10390200F0EFA3F09014F3E060719014E9E024FC6E
:10391200FFF08F01870309870509870609870719C1
:1039220019199014D8EBF0EDA3F0EEA3F0EFA3F089
:103932009014D8744AF07443A3F07480A3F09014E6
:10394200D8E0F51EA3E0F51FA3E0F5207401251EC3
:10395200FAE4351FFBAF209014D8EAF0EBA3F0EFA6
:10396200A3F0851E82851F838520F0123D52FF70D1
:10397200030234718F8212336280C39014F5E070B7
:10398200030234719014F1E060479014E9E014F9F5
:10399200F087077E007D007B009014D8EFF0EEA345
:1039A200F0EDA3F0EBA3F09014F0E06003023A49CB
:1039B2009014D8E0FBA3E0A3E0A3E07D007E007FAB
:1039C200009014D8EBF0EDA3F0EEA3F0EFA3F0809B
:1039D200769014F2E060289014E9E024FCFFF08F66
:1039E20001870309870509870609870719191990AD
:1039F20014D8EBF0EDA3F0EEA3F0EFA3F080489023
:103A020014E9E024FEFFF08F01870609870719EF0A
:103A12003395E0FDFB9014D8EEF0EFA3F0EDA3F0A8
:103A2200EBA3F09014F0E0701E9014D8E0FBA3E03A
:103A3200FDA3E0A3E07E007F009014D8EBF0EDA39D
:103A4200F0EEA3F0EFA3F09014F0E060419014D8F0
:103A5200E0FBA3E0FDA3E0FEA3E0FF30E72B901420
:103A6200D8E0FBA3E0FDA3E0FEA3E0FFC3E49BFBE1
:103A7200E49DFDE49EFEE49FFF9014D8EBF0EDA3DD
:103A8200F0EEA3F0EFA3F080059014F0E4F09014B0
:103A9200F47401F09014F5E0F51C752102752215FD
:103AA200E4F519F51A9014DCE4F0851C821233D97E
:103AB2009014F4E070269014DCE0C4F51E85218297
:103AC200852283E0FFE51E4207852182852283EF5E
:103AD200F0152174FFB521021522800C9014DCE050
:103AE200FF852182852283F00519E4B51902051AA2
:103AF2009014F4E0B40100E433F09014D8E0FAA397
:103B0200E0FBA3E0FEA3E0FFEA4B4E4F7097901557
:103B120003E521F0E522A3F09014FAE519F0E51A85
:103B2200A3F09014F6E0F5F0A3E045F070099014CC
:103B3200F67401F0E4A3F09014EDE0FFE07047901A
:103B420014ECE07041851921851A229014F6E0FAEE
:103B5200A3E0FBC007AF210F8F067F00C3EE9AEFF1
:103B62009BD0075019758220C007C003C0021233D0
:103B720062D002D003D0071ABAFF011B80D590147D
:103B8200F6EAF0EBA3F09014F0E0602075822DC00D
:103B920007123362D0079014F6E024FFFDA3E0344D
:103BA200FFFE9014F6EDF0EEA3F080569014FAE0CA
:103BB200F5F0A3E045F0604A9014EEE060207582D3
:103BC2002BC007123362D0079014F6E024FFFDA346
:103BD200E034FFFE9014F6EDF0EEA3F08024901492
:103BE200EFE0601E758220C007123362D007901486
:103BF200F6E024FFFDA3E034FFFE9014F6EDF0EEB4
:103C0200A3F09014ECE070489014FAE0F521A3E0E0
:103C1200F5229014F6E0FAA3E0FBC0078A068B07B0
:103C22001ABAFF011BC3E5219EE5229FD00750531C
:103C3200EF60067D307E0080047D207E008D82C094
:103C420007C003C002123362D002D003D00780CA79
:103C52009014F6E0FEA3E0FF9014FAE0F521A3E051
:103C6200F522C3E5219EE5229F500F9014F6EEC384
:103C72009521F0EF9522A3F080119014F6E4F0A3C1
:103C8200F080089014F6EAF0EBA3F0901503E0FE42
:103C9200A3E0FF9014FAE0F521A3E0F522AA21ADFA
:103CA20022152174FFB521021522EA4D60459014B8
:103CB200F4E0B40100E433F09014F4E070140EBEAA
:103CC20000010F8E828F83E0C4540FFD9014DCF04C
:103CD200800E8E828F83E0FD53050F9014DCEDF091
:103CE2009014DCE0F582C007C00612339DD006D0E6
:103CF2000780AA9014ECE070030234719014F6E08D
:103D0200FEA3E0FF8E038F051EBEFF011FEB4D7069
:103D120003023471758220C007C006123362D006D6
:103D2200D00780E08C821233620234719014DDE09D
:083D3200FEA3E08E82F583225E
:0B434A003C4E4F20464C4F41543E00BB
:103D3A00AA82AB83123D526003A380F8C3E5829A3C
:083D4A00F582E5839BF583225D
:0D210600758123123D6EE582600302210306
:103D520020F71430F6148883A88220F507E6A8839A
:103D620075830022E280F7E49322E022758200222A
:00000001FF
