:10216200C294C29522C295C294D295D29422D2949C
:10217200D295C294C29522C294D295C295D294228B
:10218200D294D295C295D29422E582900400F07F37
:1021920000900400E020E704C2948002D294D29519
:1021A200C295900400E025E0F00FBF080040E2D2A3
:1021B20094D295A294E433FFC2958F8222900401B7
:1021C200E4F07F00D295309408900401E043E001EE
:1021D200F0BF07005007900401E025E0F0C2950F20
:0C21E200BF080040DF900401E0F58222FD
:03210000022106B3
:03215F0002210357
:0321030002223F76
:1021EE00AF83E582900402F0EFA3F010990280FB1A
:1021FE00900402E0FEA3E08E999000002210980257
:10220E0080FBAE997F008E828F8322AF83E5829012
:10221E000404F0EFA3F0900404E0FEA3E0FF7C00C2
:10222E007D00C3EC9EED9F50070CBC00F50D80F2B7
:10223E002212225080FB759850758920758DFDD223
:10224E008E227478C0E0743BC0E07480C0E012311E
:10225E001615811581158174CBC0E0743BC0E074F6
:10226E0080C0E0123116158115811581741DC0E0F4
:10227E00743CC0E07480C0E01231161581158115D2
:10228E0081746FC0E0743CC0E07480C0E0123116FF
:10229E0015811581158174C1C0E0743CC0E0748055
:1022AE00C0E01231161581158115817413C0E074CA
:1022BE003DC0E07480C0E012311615811581158184
:1022CE007465C0E0743DC0E0122FBF1581158112F8
:1022DE00220BAE82AF83C007C0061221EED006D00D
:1022EE0007BE7705BF00028006BE5706BF00030279
:1022FE002349BE7205BF00028006BE5206BF000310
:10230E00022513BE6805BF00028006BE4806BF0048
:10231E00030226DEBE7405BF00028006BE5406BF51
:10232E000003022E9B747CC0E0743DC0E07480C03C
:10233E00E012311615811581158122900408E4F002
:10234E00900409F074A0C0E0743DC0E0122FBF15D8
:10235E0081158112220BAE82AF83C007C0061221F7
:10236E00EED006D007EE24D0FCEF34FFFDC007C040
:10237E0006C004C00574D8C0E0743DC0E07480C0CF
:10238E00E0123116E58124FBF581D006D0078E04CC
:10239E008F05C3EC9430ED940040A98E048F05C3D5
:1023AE0074399CE49D409D8E048F05C3EC9430EDF2
:1023BE0094005003022431C374379CE49D500302F1
:1023CE002431EE24D0FE240A83F582EE240C83F50C
:1023DE0083E473F1F90109111921292323242424FB
:1023EE0024242490040774A0F0804D90040774A256
:1023FE00F0804590040774A4F0803D90040774A605
:10240E00F0803590040774A8F0802D90040774AA0C
:10241E00F0802590040774ACF0801D90040774AE14
:10242E00F0801574FAC0E0743DC0E07480C0E01214
:10243E003116158115811581900407E0FFFD7E0090
:10244E00C007C005C006742AC0E0743EC0E07480A8
:10245E00C0E0123116E58124FBF581D00790040807
:10246E00E07024C0077458C0E0743EC0E07480C0B1
:10247E00E0123116158115811581122EB6E582D026
:10248E0007900408F080D6900409E0FE7024C0077F
:10249E007485C0E0743EC0E07480C0E01231161541
:1024AE008115811581122EB6E582D007900409F0B0
:1024BE0080D5C007C006122162D006D0078F82C019
:1024CE000612218BE582900406F0900408E0F58256
:1024DE0012218BE582D006900406F08E82C0061281
:1024EE00218BE582900406F01221677F00C00774ED
:1024FE00ACC0E0743EC0E07480C0E0123116E581DD
:10250E0024FBF5812290040CE4F074A0C0E0743D2D
:10251E00C0E0122FBF1581158112220BAE82AF8340
:10252E00C007C0061221EED006D007EE24D0FCEF75
:10253E0034FFFDC007C006C004C00574D8C0E074E7
:10254E003DC0E07480C0E0123116E58124FBF581B8
:10255E00D006D0078E048F05C3EC9430ED94004066
:10256E00A98E048F05C374399CE49D409D8E048F03
:10257E0005C3EC9430ED9400500302261FC374374C
:10258E009CE49D500302261FEE24D0FE240A83F500
:10259E0082EE240C83F583E473B7C4D1DEEBF80529
:1025AE0012252525252525262690040A74A0F090AF
:1025BE00040B04F0807090040A74A2F090040B04D3
:1025CE00F0806390040A74A4F090040B04F080561B
:1025DE0090040A74A6F090040B04F0804990040A4B
:1025EE0074A8F090040B04F0803C90040A74AAF0D6
:1025FE0090040B04F0802F90040A74ACF090040B3E
:10260E0004F0802290040A74AEF090040B04F08063
:10261E001574FAC0E0743DC0E07480C0E01231164B
:10262E0015811581158190040BE0FFFD7E00C0071A
:10263E00C005C006742AC0E0743EC0E07480C0E0DD
:10264E00123116E58124FBF581D00790040CE0FED3
:10265E007024C0077458C0E0743EC0E07480C0E0BF
:10266E00123116158115811581122EB6E582D0070D
:10267E0090040CF080D5C007C00612216290040AA7
:10268E00E0F58212218BD0068E82C00612218B12AB
:10269E002170D006D0078F82C00612218B1221BF67
:1026AE00AF82D006C007C006122182122167D00663
:1026BE007D007C00C005C006C00474DDC0E0743E21
:1026CE00C0E07480C0E0123116E58124F9F5812254
:1026DE00900411E4F0900412F0900413F074A0C072
:1026EE00E0743DC0E0122FBF1581158112220BAE92
:1026FE0082AF83C007C0061221EED006D007EE24AB
:10270E00D0FCEF34FFFDC007C006C004C00574D86E
:10271E00C0E0743DC0E07480C0E0123116E5812443
:10272E00FBF581D006D0078E048F05C3EC9430EDF7
:10273E00940040A98E048F05C374399CE49D409D7E
:10274E008E048F05C3EC9430ED940050030227F2F3
:10275E00C374379CE49D50030227F2EE24D0FD246F
:10276E000A83F582ED240C83F583E4738A97A4B172
:10277E00BECBD8E5272727272727272790040D74B8
:10278E00A0F090040E04F0807890040D74A2F090E6
:10279E00040E04F0806B90040D74A4F090040E04EB
:1027AE00F0805E90040D74A6F090040E04F080513B
:1027BE0090040D74A8F090040E04F0804490040D63
:1027CE0074AAF090040E04F0803790040D74ACF0EF
:1027DE0090040E04F0802A90040D74AEF090040E56
:1027EE0004F0801DC007C00674FAC0E0743DC0E05E
:1027FE007480C0E0123116158115811581D006D076
:10280E000790040EE0FD7C00C007C006C005C004A2
:10281E00742AC0E0743EC0E07480C0E0123116E548
:10282E008124FBF581D006D007900411E07028C0FA
:10283E0007C00674F5C0E0743EC0E07480C0E012BC
:10284E003116158115811581122EB6E582D006D06E
:10285E0007900411F080D2C007C0067423C0E07444
:10286E003FC0E0122FBF1581158112220BAC82AD35
:10287E0083C005C0041221EED004D005EC24D0FA9A
:10288E00ED34FFFBC005C004C002C00374D8C0E025
:10289E00743DC0E07480C0E0123116E58124FBF572
:1028AE0081D004D005D006D0078C028D03C3EA94E4
:1028BE0030EB940040A18C028D03C374399AE49BD3
:1028CE0040958C028D03C3EA9430EB9400500302C2
:1028DE002975C374379AE49B5003022975EC24D0F2
:1028EE00FB240A83F582EB240C83F583E4730C1A24
:1028FE002734414E5B682929292929292929900441
:10290E000F74A0F090041004F002299A90040F7432
:10291E00A2F090041004F0807390040F74A4F09051
:10292E00041004F0806690040F74A6F09004100456
:10293E00F0805990040F74A8F090041004F0804CAD
:10294E0090040F74AAF090041004F0803F90040FCE
:10295E0074ACF090041004F0803290040F74AEF05A
:10296E0090041004F08025C007C006C005C0047492
:10297E00FAC0E0743DC0E07480C0E01231161581DB
:10298E0015811581D004D005D006D007900410E033
:10299E00FB7A00C007C006C005C004C003C00274A5
:1029AE0059C0E0743FC0E07480C0E0123116E5817A
:1029BE0024FBF581D004D005D006D007900412E098
:1029CE00FBE07030C007C006C005C004748EC0E0C6
:1029DE00743FC0E07480C0E0123116158115811568
:1029EE0081122EB6E582D004D005D006D007900411
:1029FE0012F080C8C007C006C005C004C00374BA78
:102A0E00C0E0743FC0E07480C0E01231161581152D
:102A1E00811581D003D004D005D006D007EEB504C1
:102A2E0006EFB505028003022B10900411E0FAF8B0
:102A3E007900C003C002C000C0017408C0E0744039
:102A4E00C0E07480C0E0123116E58124FBF581D020
:102A5E0002D00390040DE0F50A90040EE0F88B0806
:102A6E00750900C3E5089A500122C002C000122168
:102A7E0062850A8212218BD000D0028A82C002C0E7
:102A8E000012218B122170D0008882C00012218B7F
:102A9E00D000D002C000C0021221BFA882C0001216
:102AAE002182122167D0007900C000C000C00174DD
:102ABE001FC0E07440C0E07480C0E0123116E581A2
:102ACE0024FBF581D000D0020509A8097900E8544D
:102ADE000F6004D00080278A007900C002C000C0B9
:102AEE0000C0017408C0E07440C0E07480C0E01201
:102AFE003116E58124FBF581D000D002D0000A0208
:102B0E002A71C0038E018F028C008D03C3E998EAEF
:102B1E009BD003400122900411E0FAF87900C0071F
:102B2E00C006C005C004C003C002C000C0017408C6
:102B3E00C0E07440C0E07480C0E0123116E581241C
:102B4E00FBF581D002D003D004D005D006D0078E7D
:102B5E00008F0188128C0B8D0C90040FE0F51590F0
:102B6E000410E0F50A8C0D8D0E85120F751000C342
:102B7E00E50D950FE50E9510500122EEB50F06EFFF
:102B8E00B510028003022C798A0F75100090040D87
:102B9E00E0F50990040EE0F508900413E0F511C37A
:102BAE0074FF950F74808510F063F08095F05003DC
:102BBE00022C73C002C007C006C005C004C003C00B
:102BCE000212216285098212218BD002AA0F8A82FB
:102BDE00C00212218B12217085088212218BD00225
:102BEE001221BFAA82C002122182122167D0028A4C
:102BFE00007A00C002C000C002741FC0E07440C062
:102C0E00E07480C0E0123116E58124FBF581D0021C
:102C1E00D003D004D005D006D0070511E511F85425
:102C2E000F6004D0028033D002C007C006C005C0BA
:102C3E0004C003C002C00FC0107408C0E07440C0CE
:102C4E00E07480C0E0123116E58124FBF581D002DC
:102C5E00D003D004D005D006D007050FE4B50F027F
:102C6E000510022BAD900413E511F085120F7510AF
:102C7E0000EEB50F07EFB51003022DA3C3E50F95B8
:102C8E000BE510950C4003022DA390040DE02402D9
:102C9E00F090040EE02402F090040DE0F890040E83
:102CAE00E0F511900413E0F50FE4F513F514C37479
:102CBE00FF951374808514F063F08095F050030235
:102CCE002D9DC002C007C006C005C004C003C002CF
:102CDE00C000122162D0008882C00012218BD00069
:102CEE00D002AA138A82C002C00012218B12217058
:102CFE0085118212218BD000D002C0001221BFAAF2
:102D0E0082D000C002C000122182122167D000D0F2
:102D1E00028A017A00C002C000C001C002741FC046
:102D2E00E07440C0E07480C0E0123116E58124FBEF
:102D3E00F581D000D002D003D004D005D006D00744
:102D4E00050FE50FF9540F6004D0028037D002C092
:102D5E0007C006C005C004C003C002C000C013C037
:102D6E00147408C0E07440C0E07480C0E0123116E4
:102D7E00E58124FBF581D000D002D003D004D0052C
:102D8E00D006D0070513E4B513020514022CBC902F
:102D9E000413E50FF0A8127900E8B50406E9B505AD
:102DAE00028003022E96900413E0F9E4F513F51455
:102DBE00C0028B007A00C3E89513EA64808514F094
:102DCE0063F08095F0D0025003022E91C002C0072E
:102DDE00C006C005C004C003C002C0011221628536
:102DEE00158212218BA813888212218B12217085D5
:102DFE000A8212218B1221BFA882C00012218212D8
:102E0E002167D000D001D0027A00C002C001C000FC
:102E1E00C002741FC0E07440C0E07480C0E0123184
:102E2E0016E58124FBF581D001D002D003D004D069
:102E3E0005D006D007098900E8540F6004D002803F
:102E4E0037D002C007C006C005C004C003C002C010
:102E5E0001C013C0147408C0E07440C0E07480C098
:102E6E00E0123116E58124FBF581D001D002D003AA
:102E7E00D004D005D006D0070513E4B5130205140F
:102E8E00022DBE900413E9F00512022B7712216277
:102E9E00D294C2957F00D295C2950FBF090040F61D
:102EAE00D295122162022167900414E4F090041569
:102EBE00F07F00EF2416FDE43404FEC007C006C008
:102ECE000512220BAB82D005D0068D828E83EBF0DD
:102EDE007C008B828C83C006C0051221EED005D0FB
:102EEE0006D0078D828E83E0FCBC3000400A8D82B6
:102EFE008E83E0FD24C65039EF2416F582E43404A7
:102F0E00F583E0FEBE61004005EE24995023BE41DC
:102F1E00004005EE24B950197423C0E07440C0E09F
:102F2E007480C0E0123116158115811581758200ED
:102F3E00220FBF02005003022EC17F00EF2416F5B0
:102F4E0082E43404F583E0FEBE3000400CEE24C66D
:102F5E004007EE24D0900415F0EF2416F582E434E9
:102F6E0004F583E0FEBE6100400CEE24994007EEAE
:102F7E0024A9900415F0EF2416F582E43404F583A9
:102F8E00E0FEBE4100400CEE24B94007EE24C9908D
:102F9E000415F0900414E0C454F0FE900415E09073
:102FAE0004142EF00FBF02004092900414E0F5823C
:012FBE0022F0
:103B78000A0A200D2023232323232323232323235B
:103B880023232323232323232323232323232323FD
:103B9800204D656E752023232323232323232323EA
:103BA80023232323232323232323232323232323DD
:103BB80023232323232323232323232323232323CD
:103BC8002323000A200D202320312E2027772720A9
:103BD8005369676E202D2D3E205772697465204504
:103BE8004550524F4D206164647265737320616E55
:103BF8006420612062797465206461746120766153
:103C08006C756520696E206865782020202020204A
:103C180020202023000A200D202320322E20277266
:103C280027205369676E202D2D3E20526561642040
:103C3800446174612066726F6D207061727469638B
:103C4800756C617220454550524F4D206164647215
:103C58006573732020202020202020202020202071
:103C6800202020202023000A200D202320332E206E
:103C7800276827205369676E202D2D3E20446973DD
:103C8800706C6179204461746120636F6E74656E35
:103C980074732066726F6D2070726F7669646564E4
:103CA80020737461727420746F20656E642061647F
:103CB8006472657373202023000A200D20232034AA
:103CC8002E20277427205369676E202D2D3E205201
:103CD800657365742074686520454550524F4D20C2
:103CE80020202020202020202020202020202020CC
:103CF80020202020202020202020202020202020BC
:103D080020202020202020202023000A200D2023EE
:103D1800232323232323232323232323232323236B
:103D2800232323232323232323232323232323235B
:103D3800232323232323232323232323232323234B
:103D4800232323232323232323232323232323233B
:103D5800232323232323232323232323000A200D80
:103D6800456E746572206368617261637465722060
:103D78000A200D000A200D2053656C6563742043EA
:103D88006F7272656374206F7074696F6E2046720B
:103D98006F6D204D656E75000A200D456E74657255
:103DA80020612076616C6964207374617274696E35
:103DB80067206164647265737320626C6F636B2043
:103DC80066726F6D203020746F2037200A200D0036
:103DD8000A200D20596F7520456E74657265642040
:103DE800626C6F636B206E756D6265723A20256434
:103DF80020000A200D20456E74657220636F727270
:103E080065637420626C6F636B206E756D6265729A
:103E1800206265747765656E203020746F203720C6
:103E28006E000A200D20436F6E74726F6C20427909
:103E3800746520666F722074686520626C6F636BAE
:103E4800206E756D626572206973203A20255800CE
:103E58000A200D20456E746572206120576F7264C8
:103E68002041646472657373206265747765656E5A
:103E780020303020746F2046463A2020000A200D5A
:103E880020456E746572204461746162797465209E
:103E98006265747765656E20303020746F20464601
:103EA8003A2020000A200D204461746120456E7478
:103EB8006572656420617420676976656E204D655A
:103EC8006D6F7279204C6F636174696F6E202D2D50
:103ED8003E202578000A200D2041646472657373C2
:103EE8002030782578202D2D3E202578000A200DB9
:103EF80020456E746572206120537461727420418C
:103F0800646472657373206265747765656E2030CA
:103F18003020746F2046463A2020000A200D456E56
:103F280074657220612076616C696420656E6469CD
:103F38006E67206164647265737320626C6F636B73
:103F48002066726F6D203020746F2037200A200D94
:103F5800000A200D20436F6E74726F6C20427974D2
:103F68006520666F722074686520656E64696E6787
:103F780020626C6F636B206E756D62657220697369
:103F8800203A202558000A200D20456E74657220BD
:103F98006120456E642041646472657373206265B4
:103FA800747765656E20303020746F2046463A205D
:103FB80020000A200D202A2A2A2A2A2A2A2A2A2ADE
:103FC8002A2A2A2A2A2A2A2A2A2A2A2A2A2A2A2A49
:103FD8002A2A4845582044554D502056414C5545AD
:103FE800532A2A2A2A2A2A2A2A2A2A2A2A2A2A2A00
:103FF8002A2A2A2A2A2A2A2A2A2A2A2A2A2A2A0043
:104008000A200D2041646472657373203078257826
:10401800202D2D3E202000202578000A200D456EF9
:1040280074657220636F72726563742076616C7553
:02403800650021
:06213500E4787FF6D8FDFE
:102113007900E94400601B7A00904045785275A02D
:1021230004E493F2A308B8000205A0D9F4DAF27527
:02213300A0FF0B
:102FBF00C016858116E51624FDF8868318868218BB
:102FCF00E493A324DB600C242560051230AD80F060
:102FDF000230C5D2D5E493A3C083C082B4731486E4
:102FEF00F018868318868218123B586054A312304B
:102FFF00AD80F5B4630818E6181230AD8043B464A1
:10300F0017E630E74618E6F42401F608E6F4340034
:10301F00F6742D1230AD8033B4782D8683188682E6
:10302F0018E412309EE58312309DE58312309EE541
:10303F008212309DE58212309E30D50574301230E9
:10304F00ADD082D083022FCFB475F6E6FA18E6F929
:10305F00187C107D27123088FF7CE87D03123088A2
:10306F00C4F5837C647D001230884283E975F00AD1
:10307F0084C445F0F582EF80A97B000BC3E99CF96E
:10308F00EA9DFA50F61BE92CF9EA3DFAEB22C454FB
:10309F000F700320D51FC2D52490D43440D4C083E1
:1030AF00C082C0F0F582E8C0E01221EED0E0F8D087
:0930BF00F0D082D08322D0162249
:10213B007800E84400600A790075A004E4F309D83C
:10214B00FC7852E84400600C7901900400E4F0A3A1
:04215B00D8FCD9FAD9
:1030C800C0168581167E008E831221EED01622AF9F
:1030D800F0AE83E58290041AF0EEA3F0EFA3F0902F
:1030E800041AE0FDA3E0FEA3E0FF900419E0FC90C1
:1030F800042EE4F0A3F0A3F0900431EDF0EEA3F079
:10310800EFA3F0900434ECF09030C802321FC016E0
:10311800E581F51624FBFF90042EE4F0A3F0A3F05C
:10312800E51624FBF8900431E6F008E6A3F008E67B
:10313800A3F0900434EFF09030C812321FD016225A
:10314800E58290042AF0E0FF900420E0C0E0A3E0CC
:10315800C0E0A3E0C0E0123163800D90041EE0C01F
:10316800E0A3E0C0E08F82221581158115819004CB
:1031780028E02401F0A3E03400F022E58290042B3B
:10318800F0E02430FF24C6500D74072FFF90041D73
:10319800E060034307208F82023148E58290042CC7
:1031A800F0E0FFC4540FF582C007123183D00753F3
:1031B800070F8F82023183E58290042DF09004235B
:1031C800E0FCA3E0FDA3E0FEA3E0FF900427E0FB02
:1031D80075212090042DE0F98B00E828F8EF23549E
:1031E8000148FBEC2CFCED33FDEE33FEEF33FFC35F
:1031F800EB994007EBC399FB430401E52114FA8AD4
:103208002170D5900423ECF0EDA3F0EEA3F0EFA32A
:10321800F0900427EBF022AF83E582900435F0EFBD
:10322800A3F0900435E0FEA3E0FF90041EEEF0EF5B
:10323800A3F090042EE0FDA3E0FEA3E0FF9004209D
:10324800EDF0EEA3F0EFA3F0900428E4F0A3F090E3
:103258000431E0FDA3E0FEA3E0FF8D828E838FF0B2
:10326800123B58FC90043174012DF0E43EA3F0EFBA
:10327800A3F0EC7003023B14BC25028003023B0C54
:10328800900437E4F0900438F0900439F090043A50
:10329800F090043BF090043CF090043DF090043E24
:1032A800F0900440F0900441F0A3F090044314F02F
:1032B800A3F0900431E0FDA3E0FEA3E0FF8D828E31
:1032C800838FF0123B58FBA3AD82AE83900431ED9F
:1032D800F0EEA3F0EFA3F0900447EBF0BB25088BCA
:1032E80082123148023257BB300050030233B8EB28
:1032F80024C650030233B8900443E0F517A3E0F561
:103308001874FFB51763B51860C005C006C00790EC
:103318000441E0FAA3E0FF900450EAF0EFA3F09034
:10332800000AC005C003123B38AE82AF83D003D079
:10333800058B027D00EA2EFEED3FFFEE24D0FEEF66
:1033480034FFFF900441EEF0EFA3F0D007D006D091
:1033580005900441E0F5F0A3E045F060030232C5B2
:103368009004387401F00232C5C005C006C0079049
:103378000450E517F0E518A3F090000AC006C00550
:10338800C003123B38AA82AF83D003D005D0067E93
:1033980000EB2AFAEE3FFFEA24D0FAEF34FFFF9061
:1033A8000443EAF0EFA3F0D007D006D0050232C5F7
:1033B800900447E0FBBB2E2FC005C006C007900451
:1033C80043E0FAA3E0FFBAFF05BFFF028009D00778
:1033D800D006D0050232C5D007D006D005900443E8
:1033E800E4F0A3F00232C5BB61004014EB24854031
:1033F8000F90044774DF5BF090041D7401F08005A2
:1034080090041DE4F0900447E0FBBB20028075BBEC
:103418002B028067BB2D028059BB4202806FBB43E1
:1034280002807CBB44030236AFBB46030236D5BBE1
:1034380048030232C5BB49030236AFBB4A03023216
:10344800C5BB4C028050BB4F030236BDBB500302C4
:10345800361DBB53028077BB54030232C5BB5503EC
:103468000236C5BB58030236CDBB5A030232C50229
:1034780036DD9004377401F00232C59004397401C6
:10348800F00232C590043A7401F00232C590043C4F
:103498007401F00232C590043D7401F00232C59007
:1034A800043CE0600E900434E014F9F0900447E71F
:1034B800F0800F900434E024FEFFF08F0190044761
:1034C800E7F0900447E0F5821231480236EC9004A8
:1034D80034E024FDFFF08F01870509870609870777
:1034E8001919900423EDF0EEA3F0EFA3F08D828E6E
:1034F800838FF0123B20858217858318900443E060
:10350800FAA3E0FDBAFF0DBDFF0A900443E517F0EA
:10351800E518A3F0900437E0704B900441E0FAA35B
:10352800E0FDC3E5179AE5189D503A900441EAC3B7
:103538009517F0ED9518A3F0900441E0FAA3E0FD8B
:103548008A068D071ABAFF011DEE4F60107582209A
:10355800C005C002123148D002D00580E390044172
:10356800EAF0EDA3F0900443E0F51AA3E0F51B9010
:103578000423E0FAA3E0FDA3E0FF8A828D838FF0A5
:10358800123B58F519603CC3E4951A7480851BF00A
:1035980063F08095F0502C151A74FFB51A02151BAC
:1035A800851982123148900423E0FAA3E0FDA3E0D4
:1035B800FF0ABA00010D900423EAF0EDA3F0EFA38F
:1035C800F080AC900437E070030236EC900441E0E0
:1035D800FEA3E0FFC3E5179EE5189F40030236EC03
:1035E800900441EEC39517F0EF9518A3F0900441AD
:1035F800E0FEA3E0FF8E028F051EBEFF011FEA4D0D
:1036080070030236E4758220C007C006123148D024
:1036180006D00780E0900434E024FDFDF08D01879A
:103628001C09871D09871E1919900423E51CF0E55C
:103638001DA3F0E51EA3F0900425E0FDBD80004029
:10364800089004477443F08020BD6000400890044F
:10365800477450F08013BD400040089004477449F7
:10366800F080069004477458F0900447E0FDF58216
:10367800C00512314875823A1231487582301231CC
:1036880048758278123148D005BD4902800EBD5078
:10369800028009900424E0F5821231A3900423E00B
:1036A800F5821231A3803D90043B7401F0900440F0
:1036B800740AF0802F9004407408F080279004402A
:1036C800740AF0801F9004407410F0801790043E34
:1036D8007401F0800F8B821231488008900441EE0B
:1036E800F0EFA3F090043EE06071900434E024FC15
:1036F800FFF08F01870309870509870609870719DE
:103708001919900423EBF0EDA3F0EEA3F0EFA3F06A
:10371800900423743AF07440A3F07480A3F09004EA
:1037280023E0F51CA3E0F51DA3E0F51E7401251C9C
:10373800FAE4351DFBAF1E900423EAF0EBA3F0EF8B
:10374800A3F0851C82851D83851EF0123B58FF70EF
:10375800030232578F8212314880C3900440E070D0
:103768000302325790043CE06047900434E014F9B7
:10377800F087077E007D007B00900423EFF0EEA326
:10378800F0EDA3F0EBA3F090043BE0600302382FC8
:10379800900423E0FBA3E0A3E0A3E07D007E007F8C
:1037A80000900423EBF0EDA3F0EEA3F0EFA3F0807C
:1037B8007690043DE06028900434E024FCFFF08F0C
:1037C80001870309870509870609870719191990C9
:1037D8000423EBF0EDA3F0EEA3F0EFA3F080489004
:1037E8000434E024FEFFF08F01870609870719EFEC
:1037F8003395E0FDFB900423EEF0EFA3F0EDA3F08A
:10380800EBA3F090043BE0701E900423E0FBA3E0E0
:10381800FDA3E0A3E07E007F00900423EBF0EDA37E
:10382800F0EEA3F0EFA3F090043BE0604190042396
:10383800E0FBA3E0FDA3E0FEA3E0FF30E72B90044C
:1038480023E0FBA3E0FDA3E0FEA3E0FFC3E49BFBB2
:10385800E49DFDE49EFEE49FFF900423EBF0EDA3BE
:10386800F0EEA3F0EFA3F0800590043BE4F09004A1
:103878003F7401F0900440E0F51A751F4D7520045F
:10388800E4F517F518900427E4F0851A821231BF81
:1038980090043FE07026900427E0C4F51C851F8241
:1038A800852083E0FFE51C4207851F82852083EF82
:1038B800F0151F74FFB51F021520800C900427E037
:1038C800FF851F82852083F00517E4B517020518C8
:1038D80090043FE0B40100E433F0900423E0FAA33D
:1038E800E0FBA3E0FEA3E0FFEA4B4E4F7097900485
:1038F8004EE51FF0E520A3F0900445E517F0E51824
:10390800A3F0900441E0F5F0A3E045F070099004BD
:10391800417401F0E4A3F0900438E0FFE0704790B0
:103928000437E0704185171F851820900441E0FA9C
:10393800A3E0FBC007AF1F0F8F067F00C3EE9AEF0F
:103948009BD0075019758220C007C003C0021231EE
:1039580048D002D003D0071ABAFF011B80D59004C3
:1039680041EAF0EBA3F090043BE0602075822DC0A3
:1039780007123148D007900441E024FFFDA3E0344A
:10398800FFFE900441EDF0EEA3F08056900445E070
:10399800F5F0A3E045F0604A900439E060207582B4
:1039A8002BC007123148D007900441E024FFFDA343
:1039B800E034FFFE900441EDF0EEA3F08024900483
:1039C8003AE0601E758220C007123148D007900483
:1039D80041E024FFFDA3E034FFFE900441EDF0EE4A
:1039E800A3F0900437E07048900445E0F51FA3E089
:1039F800F520900441E0FAA3E0FBC0078A068B0794
:103A08001ABAFF011BC3E51F9EE5209FD00750533C
:103A1800EF60067D307E0080047D207E008D82C0B0
:103A280007C003C002123148D002D003D00780CAB1
:103A3800900441E0FEA3E0FF900445E0F51FA3E0F9
:103A4800F520C3E51F9EE5209F500F900441EEC36B
:103A5800951FF0EF9520A3F08011900441E4F0A3A6
:103A6800F08008900441EAF0EBA3F090044EE0FEE9
:103A7800A3E0FF900445E0F51FA3E0F520AA1FADE1
:103A880020151F74FFB51F021520EA4D60459004EC
:103A98003FE0B40100E433F090043FE070140EBE40
:103AA80000010F8E828F83E0C4540FFD900427F02D
:103AB800800E8E828F83E0FD53050F900427EDF072
:103AC800900427E0F582C007C006123183D006D0E3
:103AD8000780AA900437E07003023257900441E04F
:103AE800FEA3E0FF8E038F051EBEFF011FEB4D7086
:103AF80003023257758220C007C006123148D0062B
:103B0800D00780E08C82123148023257900428E0B6
:083B1800FEA3E08E82F583227A
:0B403A003C4E4F20464C4F41543E00CE
:103B2000AA82AB83123B586003A380F8C3E5829A54
:103B3000F582E5839BF58322AA83AB828BF0900408
:103B400050E0A4F8A9F08AF0E0A429F98BF0A3E0F2
:083B5000A429F58388822222DA
:0D210600758121123B74E582600302210304
:103B580020F71430F6148883A88220F507E6A88396
:103B680075830022E280F7E49322E0227582002226
:00000001FF
