:03210000022106B3
:03215F0002210357
:0321030002217442
:20216200E5829016C0F0E0FF90FFFF75F000EF022EDD901701E4F0A3F09017A3F0A3F07E78
:20218200007F00C007C006746CC0E0743DC0E07480C0E0123328158115811581122C9AAC19
:2021A20082AD83D006D0078C028D03C3EA9420EB940040378C028D03C374809A740C9B407F
:2021C2002A8C828D83C007C006C005C00412303DAA82AB83D004D005D006D0078B017B0069
:2021E2009016C3EAF0E9A3F0EBA3F09016C3E0F9A3E0FAA3E0E94A7022C007C006C005C087
:202202000474A1C0E0743DC0E0122EF815811581D004D005D006D0070222AFC007C006C0D8
:2022220005C00474BCC0E0743DC0E0122EF815811581D004D005D006D0079016C3E0FAA312
:20224200E0FB901703EAF0EBA3F09016C3E0F9A3E0FAA3E0EC29F9ED3AFA90172BE9F0EA99
:20226200A3F0901753ECF0EDA3F0EE2EFAEF33FBEA2403F582EB3417F583E0FAA3E0FBC0F2
:2022820007C006C005C004C002C00374D7C0E0743DC0E07480C0E0123328E58124FBF58129
:2022A200D004D005D006D0070EBE00010F8C028D03C3EA94BCEB940740030223A69016C3D2
:2022C200E0F9A3E0FAA3E0FBE94A70030223A68C828D83C007C006C005C00412303DAA82D8
:2022E200AB83D004D0058A088B09750A009016C6E508F0E509A3F0E50AA3F0A808AB099020
:202302001705E8F0EBA3F0EC2508F9ED3509FA90172DE9F0EAA3F0901755ECF0EDA3F09000
:2023220016C1ECF0EDA3F074F9C0E0743DC0E0122EF815811581D006D007EE2EFCEF33FDC2
:20234200EC2403F582ED3417F583E0FCA3E0FDC007C006C004C0057416C0E0743EC0E074DF
:2023620080C0E0123328E58124FBF581D006D0079016FF74012EF0E43FA3F090177BE4F042
:20238200A3F09016C1E0FCA3E0FD9017A5ECF0EDA3F09016C1E0FCA3E0FD9017A7ECF0ED63
:2023A200A3F0802E9016C3E0FBA3E0FCA3E0FD8B828C838DF0C007C006122D86743AC0E05E
:2023C200743EC0E0122EF815811581D006D0070221859016FFE0F512A3E0F5137C007D00E0
:2023E200C005C0047466C0E0743EC0E07480C0E012332815811581158174A2C0E0743EC09B
:20240200E07480C0E012332815811581158174C7C0E0743EC0E07480C0E01233281581153E
:2024220081158174EAC0E0743EC0E07480C0E0123328158115811581741DC0E0743FC0E0EC
:202442007480C0E01233281581158115817458C0E0743FC0E07480C0E012332815811581CB
:202462001581748FC0E0743FC0E07480C0E012332815811581158174CEC0E0743FC0E012C4
:202482002EF815811581122D5B858214858315D004D0050CBC00010D743FB51406E4B51567
:2024A20002800C9017A3E02401F0A3E03400F0C005C004C004C00574E5C0E0743FC0E074D4
:2024C20080C0E0123328E58124FBF581851482851583122D69D004D005A814A915C37460D8
:2024E20098E49940030225DCA814A915C3E8947BE9940040030225DC9017A5E0F8A3E0F9E8
:202502004870030225DCC004C0057582AAC005C004122162D004D0059016C3E0F508A3E041
:20252200F509A3E0F50A901701E0F50BA3E0F50CE50B2508F508E50C3509F509AC14850879
:2025420082850983850AF0EC122EDD9016C3E0F9A3E0FCA3E0FDE50B29F9E50C3CFCC0051D
:20256200C004C001C004C005740BC0E07440C0E07480C0E0123328E58124FAF581D004D039
:20258200059017017401250BF0E4350CA3F0901701E0FCA3E0FD90177BECF0EDA3F0901617
:2025A200C1E0F8A3E0F9E8C39CF8E99DF99017A5E8F0E9A3F0C005C004C004C0057431C02F
:2025C200E07440C0E07480C0E0123328E58124FBF581D004D005D005D004742BB51406E425
:2025E200B515028003022770C004C0057582BBC005C004122162745EC0E07440C0E07480DE
:20260200C0E0123328158115811581122C9A858208858309D004D005AC08AD09C3EC941E7D
:20262200ED9400D005D0045003022770C004C005AC08AD09C3742C9C74019DD005D0045085
:2026420003022770C004C0059017E3E512F0E513A3F09000031231A6AC82AD83EC24C3F5B5
:202662000BED3416F50C85088285098312303DAC82AD838C0D8D0E750F00850B82850C833A
:20268200E50DF0E50EA3F0E50FA3F0E5122512F510E51333F511E5102403F582E511341711
:2026A200F583A90DAC0EE9F0ECA3F0E510242BF582E5113417F583E508250DF9E509350E1B
:2026C200FCE9F0ECA3F0E5102453F582E5113417F583E508F0E509A3F0E510247BFCE51124
:2026E2003417FD8C828D83E4F0A3F0E51024A5F8E5113417F98C828D83E0FCA3E0FDE508B4
:20270200C39CFCE5099DFD88828983ECF0EDA3F0C005C004C012C01374AEC0E07440C0E01E
:20272200122EF8E58124FCF581D004D005850B82850C83E0F9A3E0FCA3E0FDC005C004C073
:2027420001C004C005C012C01374D0C0E07440C0E07480C0E0123328E58124F8F581D00443
:20276200D0050512E4B512020513D005D004742DB51406E4B51502800302285EC004C00549
:202782007582CCC005C00412216274F4C0E07440C0E07480C0E01233281581158115811225
:2027A2002C9A858210858311D004D005AC10AD11C3E5129CE5139DD005D0045003022841AC
:2027C200E51045116079C004C0059017E3E510F0E511A3F09000031231A6AC82AD83EC2468
:2027E200C3F582ED3416F583E0F9A3E0FCA3E0FD89828C838DF0C005C004122D86D004D08D
:2028020005E5102510FCE51133FDEC2403F582ED3417F583E4F0A3F0C005C004C010C0119A
:20282200742EC0E07441C0E07480C0E0123328E58124FBF581D004D005D005D004801DC054
:2028420005C0047448C0E07441C0E07480C0E0123328158115811581D004D005743FB51414
:2028620006E4B515028003022A7D7582DDC005C0041221627472C0E07441C0E07480C0E013
:2028820012332815811581158174BBC0E07441C0E07480C0E0123328158115811581D0044C
:2028A200D005A812A913E4F510F511C004C005AC10AD11C3EC98ED99D005D00440030229F5
:2028C20080E5102510F50DE51133F50EE50D2403F582E50E3417F583E0F50BA3E0F50CE58F
:2028E2000B450C7003022975C004C005E50D24A5F582E50E3417F583E0FCA3E0FDE50D2484
:202902007BF582E50E3417F583E0FEA3E0FFE50D2453F582E50E3417F583E0F508A3E0F5C2
:2029220009E50D242BF582E50E3417F583E0FAA3E0FBC005C004C001C000C004C005C0066D
:20294200C007C008C009C002C003C00BC00CC010C01174FEC0E07441C0E07480C0E0123320
:2029620028E58124F1F581D000D001D004D005D005D0040510E4B5100205110228ADC005D7
:20298200C0049017A3E0C0E0A3E0C0E0741EC0E07442C0E07480C0E0123328E58124FBF581
:2029A200819017A3E4F0A3F07452C0E07442C0E07480C0E0123328158115811581D004D0C0
:2029C20005901701E0FEA3E0FF7A007B008A008B01C3E89EE99F4003022A76C004C005900E
:2029E20016C3E0F8A3E0F9A3E0FDEA28F8EB39F9888289838DF0123D4AF87D00C007C006D3
:202A0200C005C004C003C002C000C0057469C0E07442C0E07480C0E0123328E58124FBF5D3
:202A220081D002D003D004D005D006D007BA4005BB00028006D005D0048031D005D004C013
:202A420007C006C005C004C003C002746EC0E07442C0E07480C0E0123328158115811581FE
:202A6200D002D003D004D005D006D0070ABA00010B0229CF901701E4F0A3F0743DB5140600
:202A8200E4B515028003022BA37582E5C005C0041221627470C0E07442C0E07480C0E012B7
:202AA2003328158115811581D004D005901701E0FEA3E0FF7A007B008A008B01C3E89EE909
:202AC2009F4003022BA39017E57410F0E4A3F08A828B83C007C006C005C004C003C0021204
:202AE20031C6E5828583F0D002D003D004D005D006D00745F0704CC004C0059016C3E0F8C8
:202B0200A3E0F9A3E0FDEA28F8EB39F9C007C006C005C004C003C002C000C001C00574A398
:202B2200C0E07442C0E07480C0E0123328E58124FAF581D002D003D004D005D006D007D0D7
:202B420005D004C004C0059016C3E0F8A3E0F9A3E0FDEA28F8EB39F9888289838DF0123DCB
:202B62004AF87D00C007C006C005C004C003C002C000C00574ACC0E07442C0E07480C0E0CA
:202B8200123328E58124FBF581D002D003D004D005D006D0070ABA00010BD005D004022A2B
:202BA200BA7440B51406E4B5150280030223E27582ACC005C00412216274B0C0E07442C0A1
:202BC200E07480C0E0123328158115811581D004D005AE12AF137A007B008A008B01C3E86F
:202BE2009EE99F4003022C8CC004C0059017E3EAF0EBA3F0900003C007C006C005C004C0DC
:202C020003C0021231A6A882A983D002D003D004D005E824C3F582E93416F583E0F8A3E014
:202C2200F9A3E0FD888289838DF0C005C004C003C002122D86D002D003D004D005EA2AFC55
:202C4200EB33FDEC2403F582ED3417F583E4F0A3F0C005C004C003C002C002C00374E2C00D
:202C6200E07442C0E07480C0E0123328E58124FBF581D002D003D004D005D006D0070ABA61
:202C820000010BD005D004022BDCC005C004122174D004D0050223E274FAC0E07442C0E030
:202CA200122EF8158115819017CDE4F0A3F07E017F00C007C006122D5BAC82AD83D006D0AA
:202CC200078C028D03C3742F9AE49B505E8C028D03C3EA943AEB940050519017CDE0FAA3F6
:202CE200E0FB9017E3EAF0EBA3F090000AC007C006C005C0041231A6AA82AB83D004D00579
:202D0200EC24D0F8ED34FFF99017CDE82AF0E93BA3F08C828D83122D69D006D0070EBE0054
:202D2200010FC3EE9405EF940040879017CDE0FEA3E0FFC007C006C006C007742DC0E0744A
:202D420043C0E07480C0E0123328E58124FBF581D006D0078E828F832210980280FBAE9935
:202D62007F008E828F8322AF83E5829017CFF0EFA3F010990280FB9017CFE0FEA3E08E99E9
:042D8200900000229B
:203D6A00C01223232320456E74657220612076616C6964206275666665722073697A65209A
:203D8A00666F7220627566666572203020616E64203120232323000A200D4D616C6C6F632C
:203DAA002062756666657230206661696C65640A0D000A200D4D616C6C6F63206275666641
:203DCA00657230207061737365640A0D000A200D4275666665722030206372656174656442
:203DEA00206174203A3058302578200A200D000A200D4D616C6C6F63206275666665723164
:203E0A0020706173736564200A200D000A200D4275666665722031206372656174656420A7
:203E2A006174203A203A3058302578200A200D000A200D4D616C6C6F63206275666665721A
:203E4A0031206661696C656420736F207265656E7465722076616C75650A0D000A0D2023DD
:203E6A002323232323232053656C6563742066726F6D2074686520636F6D6D616E64206F23
:203E8A007074696F6E732062656C6F772023232323232323232323000A200D20312E2027C7
:203EAA002B27205369676E202D2D3E204164642061204E657720427566666572000A200D98
:203ECA0020322E20272D27205369676E202D2D3E20436C65616E2061204275666665720056
:203EEA000A200D20332E20273F27205369676E202D2D3E20446973706C61792061204465AA
:203F0A007461696C65642048656170205265706F7274000A200D20342E20274027205369A7
:203F2A00676E202D2D3E20436C65617220616C6C2042756666657273204461746120616E14
:203F4A006420537461727420416761696E000A200D20352E202761272D277A2720202D2DAD
:203F6A003E2053746F7265207468657365204368617261637465727320696E2042756666D9
:203F8A0065722030002323232323232323232323232323232323232323232323232323233F
:203FAA00232323232323232323232323232323232323232323232323232323232323232397
:203FCA00232323000A200D456E74657220636861726163746572200A200D000A200D546F1B
:203FEA0074616C206E756D626572206F662063686172616374657273203D2564200A200D5B
:20400A0000202D2D3E2054686973206368617261637465722069732073746F72656420612B
:20402A0074202570200A000A200D20546F74616C206E756D626572206F662073746F7261E1
:20404A0067652063686172616374657273203D2564200A000A200D20596F75206E656564EA
:20406A0020746F20656E7465722061206E756D626572206265747765656E20333020746F3B
:20408A002033303020627974657320746F206372656174652061206E657720627566666572
:2040AA0072200A000A200D204E6577204D616C6C6F632062756666657220256420706173BA
:2040CA007365640A0D000A200D2041646472657373206F6620627566666572206E6F202595
:2040EA00643A202570200A200D000A200D20596F75206E65656420746F20656E746572205B
:20410A00612076616C696420627566666572206E756D62657220746F20636C65617220690E
:20412A0074200A000A200D2042756666657220256420436C6561726564200A200D000A202C
:20414A000D20596F7520656E746572656420612077726F6E6720427566666572206E756D2C
:20416A00626572200A200D000A200D20232323232323232323232323232323232323232392
:20418A002323232323232048656170205265706F7274202323232323232323232323232322
:2041AA002323232323232323232323232323200A000A0D42756666657209537461727469F0
:2041CA006E6720416464720945736E64696E6720416464720953697A650953746F726167DC
:2041EA006543686172092046726565205370616365200A000A0D25640930583025780909E1
:20420A0030583025780909202564090925640925640A0D000A200D20546F74616C206E6FE8
:20422A002E206F662063686172616374657273206166746572203F207369676E202D2D3EF7
:20424A00202564200A200D000A200D446174612061742042756666657220303A200900255C
:20426A00632020000A000A200D2023232323232323232323204461746120496E73696465BC
:20428A00204275666665722030202323232323232323232323232323000A200D2025702034
:2042AA003A00257820000A200D202323232323232323232320416C6C204275666665727322
:2042CA0020436C6561726564202323232323232323232323232323000A200D204275666620
:2042EA00657220256420436C6561726564200A000A200D20456E7465722061206E756D6292
:20430A00657220696E2076616C69642072616E6765206173206D656E74696F6E6564200A67
:18432A00200D000A2053697A65204E756D626572203D202564200A00D0
:02434D0000006E
:202D8600AFF0AE83E5829017D1F0EEA3F0EFA3F09017D1E0FDA3E0FEA3E09017D1E0F5F0F5
:202DA600A3E045F07001229017D6E4F0A3F09017DBE0FBA3E0FC9017D4EBF0ECA3F0901786
:202DC600D874DBF07417A3F09017D4E0FBA3E0FC4B60418B018C02C003C0048D008E04C374
:202DE600E998EA9CD004D003502A9017D6EBF0ECA3F074022BFBE43CFC9017D8EBF0ECA32D
:202E0600F08B828C83E0FBA3E0FC9017D4EBF0ECA3F080B49017D4E0FEA3E0FF9017D1E00A
:202E2600FBA3E0FCA3E0EB24FEFBEC34FFFC74022BFAE43CFD8A828D83EEF0EFA3F0901791
:202E4600D8E0F8A3E0F988828983EBF0ECA3F08B828C83E0F8A3E0F9EEB50033EFB5012FB6
:202E660088828983A3A3E0FEA3E0FF8A828D83EEF0EFA3F08B828C83E0FEA3E0FF8E828FF9
:202E860083E0FEA3E0FF8B828C83EEF0EFA3F09017D6E0FEA3E0FF4E603C8E828F83E0F80C
:202EA600A3E0F9E8B5032FE9B5042B8B828C83E0FBA3E0FC8E828F83EBF0ECA3F074022E5E
:172EC600FEE43FFF8A828D83E0FAA3E0FD8E828F83EAF0EDA3F022C1
:06213500E4787FF6D8FDFE
:202113007902E94400601B7A0190434D782575A018E493F2A308B8000205A0D9F4DAF275A3
:02213300A0FF0B
:1B2EDD0020F71130F6138883A88220F509F6A8837583002280FEF280F5F022F4
:202EF800C018858118E51824FDF8868318868218E493A324DB600C24256005122FE680F0A3
:202F1800022FFED2D5E493A3C083C082B4731486F018868318868218123D4A6054A3122FE9
:202F3800E680F5B4630818E618122FE68043B46417E630E74618E6F42401F608E6F434006A
:202F5800F6742D122FE68033B4782D868318868218E4122FD7E583122FD6E583122FD7E56E
:202F780082122FD6E582122FD730D5057430122FE6D082D083022F08B475F6E6FA18E6F978
:202F9800187C107D27122FC1FF7CE87D03122FC1C4F5837C647D00122FC14283E975F00A32
:202FB80084C445F0F582EF80A97B000BC3E99CF9EA9DFA50F61BE92CF9EA3DFAEB22C454F0
:202FD8000F700320D51FC2D52490D43440D4C083C082C0F0F582E8C0E0122D69D0E0F8D088
:092FF800F0D082D08322D018220F
:203001009017DB7400F07404A3F0903D6AE493FE740193FF1EBEFF011FEE2400FEEF3404D9
:20302100FF900400EEF0EFA3F09017DBE0FEA3E0FF8E828F83A3A3E4F0A3F022AF83E58230
:203041009017DDF0EFA3F09017DBE0F5F0A3E045F070031230019017DDE0FEA3E0FF4E6032
:203061000E74022EFCE43FFDC3EC9EED9F5004900000229017DD74022EF0E43FA3F090172D
:20308100DDE0FEA3E0FFC3EE9404EF940050099017DD7404F0E4A3F09017DBE0FEA3E0FF88
:2030A1009017DFEEF0EFA3F09017E174DBF07417A3F09017DFE0FEA3E0FF4E70030231A2C8
:2030C1008E828F83E0FCA3E0FD8C028D038E008F01EAC398FAEB99FB8A008B019017DDE0FD
:2030E100F516A3E0F517C3E89516E99517500302317F74042516F8E43517F9C3EA98EB99A8
:20310100404C8E028F03E5162AFAE5173BFB8A828B83ECF0EDA3F074022AFCE43BFD8E8271
:203121008F83A3A3E0F8A3E0F98C828D83E8F0E9A3F09017E1E0FCA3E0FD8C828D83EAF094
:20314100EBA3F08E828F83EAF0EBA3F0801C9017E1E0FCA3E0FD8E828F83A3A3E0FAA3E031
:20316100FB8C828D83EAF0EBA3F09017DFE0FCA3E0FD74022CFCE43DFD8C828D8322740289
:203181002EFEE43FFF9017E1EEF0EFA3F08E828F83E0FEA3E0FF9017DFEEF0EFA3F002305E
:0531A100B390000022C4
:2031A600AA83AB828BF09017E3E0A4F8A9F08AF0E0A429F98BF0A3E0A429F58388822222E4
:2031C600AF83E5829017E7F0EFA3F09017E7E0FEA3E0FF30E709C3E49EFCE49FFD80048E6F
:2031E600048F059017E5E0FEA3E0FF30E709C3E49EFAE49FFB80048E028F039017E9EAF058
:20320600EBA3F08C828D8312322EAE82AF839017E7E0A3E030E70CC3E49EFCE49FFD8C8255
:083226008D83228E828F83222A
:20322E00AF83E5829017EBF0EFA3F09017EDE4F09017EBE0FEA3E0FF7D009017E9E0FBA3FE
:20324E00E0FC235401FA7036EB2BFBEC33FC9017E9EBF0ECA3F09017E9E0FBA3E0FCC3EEBB
:20326E009BEF9C5011ECC313CB13CBFC9017E9EBF0ECA3F080080D9017EDEDF080BC90177F
:20328E00EDE0FF9017EBE0FDA3E0FE9017E9E0FBA3E0FCC3ED9BEE9C400B9017EBEDC39B7D
:2032AE00F0EE9CA3F09017E9E0FDA3E0C313CD13CDFE9017E9EDF0EEA3F08F061FEE70C3BF
:0C32CE009017EBE0FEA3E08E82F5832257
:20213B007800E84400600A790075A004E4F309D8FC7825E84414600C7915900400E4F0A34E
:04215B00D8FCD9FAD9
:2032DA00C0188581187E008E83122D69D01822AFF0AE83E5829017EFF0EEA3F0EFA3F0904D
:2032FA0017EFE0FDA3E0FEA3E0FF9017EEE0FC901803E4F0A3F0A3F0901806EDF0EEA3F0AC
:20331A00EFA3F0901809ECF09032DA023431C018E581F51824FBFF901803E4F0A3F0A3F073
:20333A00E51824FBF8901806E6F008E6A3F008E6A3F0901809EFF09032DA123431D018222C
:20335A00E5829017FFF0E0FF9017F5E0C0E0A3E0C0E0A3E0C0E0123375800D9017F3E0C094
:20337A00E0A3E0C0E08F82221581158115819017FDE02401F0A3E03400F022E582901800CA
:20339A00F0E02430FF24C6500D74072FFF9017F2E060034307208F8202335AE5829018010A
:2033BA00F0E0FFC4540FF582C007123395D00753070F8F82023395E582901802F09017F82A
:2033DA00E0FCA3E0FDA3E0FEA3E0FF9017FCE0FB752320901802E0F98B00E828F8EF2354C2
:2033FA000148FBEC2CFCED33FDEE33FEEF33FFC3EB994007EBC399FB430401E52314FA8A46
:20341A002370D59017F8ECF0EDA3F0EEA3F0EFA3F09017FCEBF022AF83E58290180AF0EF62
:20343A00A3F090180AE0FEA3E0FF9017F3EEF0EFA3F0901803E0FDA3E0FEA3E0FF9017F5AC
:20345A00EDF0EEA3F0EFA3F09017FDE4F0A3F0901806E0FDA3E0FEA3E0FF8D828E838FF03A
:20347A00123D4AFC90180674012DF0E43EA3F0EFA3F0EC7003023D26BC25028003023D1E9F
:20349A0090180CE4F090180DF090180EF090180FF0901810F0901811F0901812F0901813E2
:2034BA00F0901815F0901816F0A3F090181814F0A3F0901806E0FDA3E0FEA3E0FF8D828E92
:2034DA00838FF0123D4AFBA3AD82AE83901806EDF0EEA3F0EFA3F090181CEBF0BB25088B99
:2034FA008212335A023469BB300050030235CAEB24C650030235CA901818E0F519A3E0F564
:20351A001A74FFB51963B51A60C005C006C007901816E0FAA3E0FF9017E3EAF0EFA3F090C2
:20353A00000AC005C0031231A6AE82AF83D003D0058B027D00EA2EFEED3FFFEE24D0FEEFD2
:20355A0034FFFF901816EEF0EFA3F0D007D006D005901816E0F5F0A3E045F060030234D7D4
:20357A0090180D7401F00234D7C005C006C0079017E3E519F0E51AA3F090000AC006C00589
:20359A00C0031231A6AA82AF83D003D005D0067E00EB2AFAEE3FFFEA24D0FAEF34FFFF9047
:2035BA001818EAF0EFA3F0D007D006D0050234D790181CE0FBBB2E2FC005C006C007901825
:2035DA0018E0FAA3E0FFBAFF05BFFF028009D007D006D0050234D7D007D006D00590181885
:2035FA00E4F0A3F00234D7BB61004014EB2485400F90181C74DF5BF09017F27401F0800505
:20361A009017F2E4F090181CE0FBBB20028075BB2B028067BB2D028059BB4202806FBB4334
:20363A0002807CBB44030238C1BB46030238E7BB48030234D7BB49030238C1BB4A030234FD
:20365A00D7BB4C028050BB4F030238CFBB500302382FBB53028077BB54030234D7BB5503DA
:20367A000238D7BB58030238DFBB5A030234D70238EF90180C7401F00234D790180E740151
:20369A00F00234D790180F7401F00234D79018117401F00234D79018127401F00234D79003
:2036BA001811E0600E901809E014F9F090181CE7F0800F901809E024FEFFF08F0190181CCB
:2036DA00E7F090181CE0F58212335A0238FE901809E024FDFFF08F0187050987060987071D
:2036FA0019199017F8EDF0EEA3F0EFA3F08D828E838FF0123D3285821985831A901818E0FD
:20371A00FAA3E0FDBAFF0DBDFF0A901818E519F0E51AA3F090180CE0704B901816E0FAA3BF
:20373A00E0FDC3E5199AE51A9D503A901816EAC39519F0ED951AA3F0901816E0FAA3E0FDC1
:20375A008A068D071ABAFF011DEE4F6010758220C005C00212335AD002D00580E390181688
:20377A00EAF0EDA3F0901818E0F51CA3E0F51D9017F8E0FAA3E0FDA3E0FF8A828D838FF079
:20379A00123D4AF51B603CC3E4951C7480851DF063F08095F0502C151C74FFB51C02151D6F
:2037BA00851B8212335A9017F8E0FAA3E0FDA3E0FF0ABA00010D9017F8EAF0EDA3F0EFA356
:2037DA00F080AC90180CE070030238FE901816E0FEA3E0FFC3E5199EE51A9F40030238FEDE
:2037FA00901816EEC39519F0EF951AA3F0901816E0FEA3E0FF8E028F051EBEFF011FEA4DFD
:20381A0070030238F6758220C007C00612335AD006D00780E0901809E024FDFDF08D0187E7
:20383A001E09871F09872019199017F8E51EF0E51FA3F0E520A3F09017FAE0FDBD80004003
:20385A000890181C7443F08020BD6000400890181C7450F08013BD4000400890181C744905
:20387A00F0800690181C7458F090181CE0FDF582C00512335A75823A12335A758230123380
:20389A005A75827812335AD005BD4902800EBD500280099017F9E0F5821233B59017F8E033
:2038BA00F5821233B5803D9018107401F0901815740AF0802F9018157408F080279018153C
:2038DA00740AF0801F9018157410F080179018137401F0800F8B8212335A8008901816EE6A
:2038FA00F0EFA3F0901813E06071901809E024FCFFF08F018703098705098706098707193B
:20391A0019199017F8EBF0EDA3F0EEA3F0EFA3F09017F87442F07443A3F07480A3F09017A1
:20393A00F8E0F51EA3E0F51FA3E0F5207401251EFAE4351FFBAF209017F8EAF0EBA3F0EFB9
:20395A00A3F0851E82851F838520F0123D4AFF70030234698F8212335A80C3901815E0702F
:20397A0003023469901811E06047901809E014F9F087077E007D007B009017F8EFF0EEA3AA
:20399A00F0EDA3F0EBA3F0901810E06003023A419017F8E0FBA3E0A3E0A3E07D007E007F2A
:2039BA00009017F8EBF0EDA3F0EEA3F0EFA3F08076901812E06028901809E024FCFFF08FA9
:2039DA000187030987050987060987071919199017F8EBF0EDA3F0EEA3F0EFA3F0804890E0
:2039FA001809E024FEFFF08F01870609870719EF3395E0FDFB9017F8EEF0EFA3F0EDA3F0C0
:203A1A00EBA3F0901810E0701E9017F8E0FBA3E0FDA3E0A3E07E007F009017F8EBF0EDA3E1
:203A3A00F0EEA3F0EFA3F0901810E060419017F8E0FBA3E0FDA3E0FEA3E0FF30E72B90175A
:203A5A00F8E0FBA3E0FDA3E0FEA3E0FFC3E49BFBE49DFDE49EFEE49FFF9017F8EBF0EDA32F
:203A7A00F0EEA3F0EFA3F08005901810E4F09018147401F0901815E0F51C752122752218F2
:203A9A00E4F519F51A9017FCE4F0851C821233D1901814E070269017FCE0C4F51E852182A7
:203ABA00852283E0FFE51E4207852182852283EFF0152174FFB521021522800C9017FCE09F
:203ADA00FF852182852283F00519E4B51902051A901814E0B40100E433F09017F8E0FAA326
:203AFA00E0FBA3E0FEA3E0FFEA4B4E4F7097901823E521F0E522A3F090181AE519F0E51AEB
:203B1A00A3F0901816E0F5F0A3E045F070099018167401F0E4A3F090180DE0FFE0704790EF
:203B3A00180CE07041851921851A22901816E0FAA3E0FBC007AF210F8F067F00C3EE9AEF2C
:203B5A009BD0075019758220C007C003C00212335AD002D003D0071ABAFF011B80D5901806
:203B7A0016EAF0EBA3F0901810E0602075822DC00712335AD007901816E024FFFDA3E034CF
:203B9A00FFFE901816EDF0EEA3F0805690181AE0F5F0A3E045F0604A90180EE06020758226
:203BBA002BC00712335AD007901816E024FFFDA3E034FFFE901816EDF0EEA3F080249018A9
:203BDA000FE0601E758220C00712335AD007901816E024FFFDA3E034FFFE901816EDF0EE0F
:203BFA00A3F090180CE0704890181AE0F521A3E0F522901816E0FAA3E0FBC0078A068B077B
:203C1A001ABAFF011BC3E5219EE5229FD0075053EF60067D307E0080047D207E008D82C026
:203C3A0007C003C00212335AD002D003D00780CA901816E0FEA3E0FF90181AE0F521A3E020
:203C5A00F522C3E5219EE5229F500F901816EEC39521F0EF9522A3F08011901816E4F0A3B3
:203C7A00F08008901816EAF0EBA3F0901823E0FEA3E0FF90181AE0F521A3E0F522AA21ADA7
:203C9A0022152174FFB521021522EA4D6045901814E0B40100E433F0901814E070140EBE10
:203CBA0000010F8E828F83E0C4540FFD9017FCF0800E8E828F83E0FD53050F9017FCEDF0AD
:203CDA009017FCE0F582C007C006123395D006D00780AA90180CE07003023469901816E04E
:203CFA00FEA3E0FF8E038F051EBEFF011FEB4D7003023469758220C007C00612335AD006A7
:183D1A00D00780E08C8212335A0234699017FDE0FEA3E08E82F583225F
:0B4342003C4E4F20464C4F41543E00C3
:183D3200AA82AB83123D4A6003A380F8C3E5829AF582E5839BF5832230
:0D210600758123123D66E58260030221030E
:1C3D4A0020F71430F6148883A88220F507E6A88375830022E280F7E49322E02288
:043D66007582002240
:00000001FF
