:10216D001221C11221C11221C11221C190F000749E
:10217D0038F01221C190F0007438F01221C190F0A6
:10218D00007438F012221C90F0007438F012221CEA
:10219D0090F0007408F012221C90F000740FF012F1
:1021AD00221C90F0007406F012221C90F0007401B5
:1021BD00F002221C900403E4F0A3F0900403E0FE6F
:1021CD00A3E0FFC3EE9405EF94005042900405E4A4
:1021DD00F0A3F0900405E0FEA3E0FFC374FB9E7432
:1021ED00049F4015900405E0FEA3E0FF90040574E4
:1021FD00012EF0E43FA3F080DA900403E0FEA3E0AB
:10220D00FF90040374012EF0E43FA3F080AD229003
:10221D00F100E020E7F922E582900408F09004092E
:10222D00E4F0900408E0FF700A900407E0900409C0
:10223D00F08031BF010E900407E0FE900409744058
:10224D002EF08020BF020E900407E0FE900409746A
:10225D00102EF0800FBF030C900407E0FF900409CF
:10226D0074502FF0900409E0F58202227AE58290F5
:10227D00040AF012221C90040AE0448090F000F051
:10228D002212221C90F0007401F022AFF0AE83E513
:10229D008290040BF0EEA3F0EFA3F090040BE0FDA1
:1022AD00A3E0FEA3E0FF8D828E838FF01235B77011
:1022BD0003022394900410E0FCFA7B00EA540F60B3
:1022CD000302235FEC700302235F900474E0FC7043
:1022DD001F9004747401F0900407E4F0758201C03E
:1022ED0007C006C005122224D005D006D007806293
:1022FD00BC011F9004747402F0900407E4F0758221
:10230D0002C007C006C005122224D005D006D00792
:10231D008040BC021F9004747403F0900407E4F035
:10232D00758203C007C006C005122224D005D00651
:10233D00D007801EBC031B900474E4F0900407F0DA
:10234D00758200C007C006C005122224D005D00634
:10235D00D0078D828E838FF01235B7FCA3AD82AE80
:10236D008390040BEDF0EEA3F0EFA3F08C82C00789
:10237D00C006C0051223A0D005D006D007900410CA
:10238D00E0FC04F00222B390040BEDF0EEA3F0EFAD
:10239D00A3F022E58290040EF012221C90040EE0B0
:1023AD0090F200F02274D7C0E07435C0E07480C0A4
:1023BD00E0122B751581158115817F00BF0400403A
:1023CD0001228F067D00BD10005064900407EDF0D2
:1023DD008E82C007C006C00512222412221C90F363
:1023ED0000E0FC900402F07B00C004C00374DAC06E
:1023FD00E07435C0E07480C0E0122B75E58124FBDC
:10240D00F581D005D006D007BD0F21C007C006C08D
:10241D000574E1C0E07435C0E07480C0E0122B7526
:10242D00158115811581D005D006D0070D80970F28
:10243D000223C912228E12221C90F0007440F01259
:10244D00221C90F200741BF012221C90F0007441BB
:10245D00F012221C90F200741BF012221C90F0005E
:10246D007442F012221C90F2007404F012221C909F
:10247D00F0007443F012221C90F2007404F012224A
:10248D001C90F0007444F012221C90F2007404F0C1
:10249D0012221C90F0007445F012221C90F200E400
:1024AD00F012221C9004077405F075820312222489
:1024BD0012221C90F200E4F01228DFAE82AF83BE30
:1024CD002017BF00149004077405F07582021222C4
:0A24DD002412221C90F200E4F02209
:0D35D7000A0D00307825782009000D0A004B
:042100000221113275
:03210B000228B5F2
:03216A0002210E41
:03210E0002264F57
:1024E700900414E4F0A3F0309809900414E599F0EF
:1024F700E4A3F0900414E0FEA3E08E82F583221299
:1025070024E7E5828583F045F060012290047AE0B4
:10251700FF7E00900432740AF0E4A3F08F828E836A
:10252700122A13E5828583F045F070D390047AE090
:1025370060CD90047A7401F0900475E0FFBF390014
:102547005009900475E0FF04F0806D9004757430B5
:10255700F0900476E0FFBF39005009900476E0FF61
:1025670004F080549004767430F0900477E0FFBF55
:1025770035005009900477E0FF04F0803B90047722
:102587007430F0900478E0FFBF3900500990047868
:10259700E0FF04F080229004787430F0900479E032
:1025A700FFBF35005009900479E0FF04F0800990DF
:1025B70004797430F01228949004077409F0758236
:1025C70003122224900479E0F5821223A0900407D5
:1025D700740AF0758203122224900478E0F58212BF
:1025E70023A0900407740BF07582031222247582CE
:1025F7003A1223A0900407740CF075820312222468
:10260700900477E0F5821223A0900407740DF0750B
:102617008203122224900476E0F5821223A090040C
:1026270007740EF075820312222475822E1223A0DE
:10263700900407740FF0758203122224900475E04A
:10264700F5821223A00225069004167457F0900411
:10265700177465F09004187420F09004197461F0F1
:1026670090041A7472F090041B7465F090041C7443
:1026770020F090041D7469F090041E746EF09004AD
:102687001F7420F09004207474F09004217468F093
:102697009004227465F09004237420F0900424744D
:1026A70065F0900425746EF09004267464F090042D
:1026B700277467F09004287461F0900429746DF012
:1026C70090042A7465F090042B7420F090042C7405
:1026D7006EF090042D04F090042E7477F090042F80
:1026E700E4F012228E12216D1221C190040FE4F042
:1026F700900474F0900410F0A3F0900407F0758232
:102707000012222490041675F00012229812287CD9
:102717009004757430F0900476F0900477F090048C
:1027270078F0900479F074E4C0E07435C0E01229C1
:102737000A15811581900412E0FEA3E0FFBE530540
:10274700BF000280181228DFAE82AF83900412EE1A
:10275700F0EFA3F08E828F831228ED80D87405C026
:10276700E07436C0E07480C0E0122B7515811581C6
:1027770015817449C0E07436C0E07480C0E0122B44
:1027870075158115811581746FC0E07436C0E074CA
:1027970080C0E0122B751581158115817495C0E0F5
:1027A7007436C0E07480C0E0122B75158115811551
:1027B7008174C3C0E07436C0E07480C0E0122B752A
:1027C70015811581158174E4C0E07436C0E074800A
:1027D700C0E0122B751581158115817405C0E07451
:1027E70037C0E07480C0E0122B7515811581158103
:1027F7001225067449C0E07437C0E012290A158112
:1028070015811228DFAE82AF83900412EEF0EFA39A
:10281700F08E828F831228ED900412E0FEA3E0FF72
:10282700BE5206BF0003122894900412E0FEA3E0F4
:10283700FFBE5306BF000312288E900412E0FEA3CA
:10284700E0FFBE4106BF0003122891900412E0FE8C
:10285700A3E0FFBE4406BF00031223B2900412E0B8
:10286700FEA3E0FFBE4305BF000280030227F71265
:1028770024400227F7C2AF438901758CDB758AFFB5
:10288700D28CD2A9D2AF22C28C22D28C22C28C7512
:102897008AFF758CDB9004797430F0900478F0909F
:1028A7000477F0900476F0900475F0D28C22C0E0A3
:1028B700C082C083C007C0D075D000C2AFB29290AB
:1028C700047AE004F0758AFF758CDBD2AFD0D0D0E4
:1028D70007D083D082D0E03210980280FBAE997F78
:1028E700008E828F8322AF83E582900430F0EFA3BE
:1028F700F010990280FB900430E0FEA3E08E9990DF
:03290700000022AB
:1035E4000A200D20456E7465722027532720746FBE
:1035F4002073746172742074696D6572200A200DE1
:10360400000A0D23232323232323232323204D656F
:103614006E753A2053656C6563742066726F6D2015
:1036240074686520636F6D6D616E64206F7074697A
:103634006F6E732062656C6F77202323232323230B
:1036440023232323000A0A200D2320312E2027526E
:1036540027205369676E202D2D3E205265736574B3
:10366400207468652074696D6572000A0A200D2350
:1036740020322E20275327205369676E202D2D3E9C
:103684002053746F70207468652074696D657220AE
:10369400000A0A200D2320332E20274127205369B6
:1036A400676E202D2D3E20526573746172742074F0
:1036B40068652074696D657220616761696E000ACE
:1036C4000A200D2320342E20274427205369676EB7
:1036D400202D2D3E20444452414D2044756D7000F0
:1036E4000A0A200D2320352E2027432720536967FB
:1036F4006E202D2D3E20536D696C652046616365F7
:10370400000A200D232323232323232323232323DA
:103714002323232323232323232323232323232375
:103724002323232323232323232323232323232365
:103734002323232323232323232323232323232355
:1037440023232323000A200D456E74657220616EC5
:1037540079206368617261637465722066726F6D4B
:0E376400206D656E75206E6F77200A200D00B7
:10377D00003030303030015765206172652074683B
:10378D00652073747564656E7473206F6620436F66
:10379D006C6F7261646F20426F756C6465722E2060
:1037AD0057686174657665722069742074616B6504
:1037BD00732073696E63652077652061726520697A
:0F37CD006E20456E6467616D65206E6F772E000C
:06214000E4787FF6D8FDF3
:10211E00795FE94400601B7A0190377D787475A071
:10212E0004E493F2A308B8000205A0D9F4DAF2751C
:02213E00A0FF00
:10290A00C008858108E50824FDF8868318868218A0
:10291A00E493A324DB600C242560051229F880F0D7
:10292A00022A10D2D5E493A3C083C082B47314865A
:10293A00F0188683188682181235B76054A31229B4
:10294A00F880F5B4630818E6181229F88043B464CD
:10295A0017E630E74618E6F42401F608E6F43400F0
:10296A00F6742D1229F88033B4782D86831886825E
:10297A0018E41229E9E5831229E8E5831229E9E531
:10298A00821229E8E5821229E930D5057430122924
:10299A00F8D082D08302291AB475F6E6FA18E6F955
:1029AA00187C107D271229D3FF7CE87D031229D3D6
:1029BA00C4F5837C647D001229D34283E975F00A49
:1029CA0084C445F0F582EF80A97B000BC3E99CF92A
:1029DA00EA9DFA50F61BE92CF9EA3DFAEB22C454B7
:1029EA000F700320D51FC2D52490D43440D4C0839D
:1029FA00C082C0F0F582E8C0E01228EDD0E0F8D03D
:102A0A00F0D082D08322D00822AF83E582900434AA
:102A1A00F0EFA3F0900434E0FEA3E0FF30E709C32F
:102A2A00E49EFCE49FFD80048E048F05900432E04E
:102A3A00FEA3E0FF30E709C3E49EFAE49FFB8004AB
:102A4A008E028F03900436EAF0EBA3F08C828D831A
:102A5A00122A7BAE82AF83900434E0A3E030E70C05
:102A6A00C3E49EFCE49FFD8C828D83228E828F8339
:102A7A0022AF83E582900438F0EFA3F090043AE4A1
:102A8A00F0900438E0FEA3E0FF7D00900436E0FBFE
:102A9A00A3E0FC235401FA7036EB2BFBEC33FC90D9
:102AAA000436EBF0ECA3F0900436E0FBA3E0FCC3A1
:102ABA00EE9BEF9C5011ECC313CB13CBFC90043666
:102ACA00EBF0ECA3F080080D90043AEDF080BC9096
:102ADA00043AE0FF900438E0FDA3E0FE900436E0FB
:102AEA00FBA3E0FCC3ED9BEE9C400B900438EDC3C6
:102AFA009BF0EE9CA3F0900436E0FDA3E0C313CD57
:102B0A0013CDFE900436EDF0EEA3F08F061FEE70A3
:0D2B1A00C3900438E0FEA3E08E82F5832214
:102146007800E84400600A790075A004E4F309D831
:10215600FC7874E84400600C7901900400E4F0A374
:04216600D8FCD9FACE
:102B2700C0088581087E008E831228EDD00822AF69
:102B3700F0AE83E58290043CF0EEA3F0EFA3F090B3
:102B4700043CE0FDA3E0FEA3E0FF90043BE0FC9023
:102B57000450E4F0A3F0A3F0900453EDF0EEA3F0DB
:102B6700EFA3F0900456ECF0902B27022C7EC008C0
:102B7700E581F50824FBFF900450E4F0A3F0A3F0EF
:102B8700E50824FBF8900453E6F008E6A3F008E60E
:102B9700A3F0900456EFF0902B27122C7ED008223A
:102BA700E58290044CF0E0FF900442E0C0E0A3E02F
:102BB700C0E0A3E0C0E0122BC2800D900440E0C04B
:102BC700E0A3E0C0E08F8222158115811581900472
:102BD7004AE02401F0A3E03400F022E58290044D9E
:102BE700F0E02430FF24C6500D74072FFF90043FF8
:102BF700E060034307208F82022BA7E58290044EF3
:102C0700F0E0FFC4540FF582C007122BE2D0075340
:102C1700070F8F82022BE2E58290044FF090044564
:102C2700E0FCA3E0FDA3E0FEA3E0FF900449E0FB86
:102C370075132090044FE0F98B00E828F8EF235430
:102C47000148FBEC2CFCED33FDEE33FEEF33FFC305
:102C5700EB994007EBC399FB430401E51314FA8A88
:102C67001370D5900445ECF0EDA3F0EEA3F0EFA3BD
:102C7700F0900449EBF022AF83E582900457F0EF20
:102C8700A3F0900457E0FEA3E0FF900440EEF0EFBE
:102C9700A3F0900450E0FDA3E0FEA3E0FF90044200
:102CA700EDF0EEA3F0EFA3F090044AE4F0A3F09068
:102CB7000453E0FDA3E0FEA3E0FF8D828E838FF037
:102CC7001235B7FC90045374012DF0E43EA3F0EFE6
:102CD700A3F0EC7003023573BC2502800302356B49
:102CE700900459E4F090045AF090045BF090045C6F
:102CF700F090045DF090045EF090045FF090046043
:102D0700F0900462F0900463F0A3F090046514F06F
:102D1700A3F0900453E0FDA3E0FEA3E0FF8D828EB5
:102D2700838FF01235B7FBA3AD82AE83900453EDCA
:102D3700F0EEA3F0EFA3F0900469EBF0BB25088B4E
:102D470082122BA7022CB6BB30005003022E17EBC2
:102D570024C65003022E17900465E0F509A3E0F599
:102D67000A74FFB50963B50A60C005C006C00790BD
:102D77000463E0FAA3E0FF900472EAF0EFA3F09097
:102D8700000AC005C003123597AE82AF83D003D0C7
:102D9700058B027D00EA2EFEED3FFFEE24D0FEEF0D
:102DA70034FFFF900463EEF0EFA3F0D007D006D016
:102DB70005900463E0F5F0A3E045F06003022D24DD
:102DC70090045A7401F0022D24C005C006C0079074
:102DD7000472E509F0E50AA3F090000AC006C005F1
:102DE700C003123597AA82AF83D003D005D0067EE1
:102DF70000EB2AFAEE3FFFEA24D0FAEF34FFFF9008
:102E07000465EAF0EFA3F0D007D006D005022D2421
:102E1700900469E0FBBB2E2FC005C006C0079004D5
:102E270065E0FAA3E0FFBAFF05BFFF028009D007FC
:102E3700D006D005022D24D007D006D00590046512
:102E4700E4F0A3F0022D24BB61004014EB2485407D
:102E57000F90046974DF5BF090043F7401F0800504
:102E670090043FE4F0900469E0FBBB20028075BB4F
:102E77002B028067BB2D028059BB4202806FBB4388
:102E870002807CBB440302310EBB4603023134BBD4
:102E97004803022D24BB490302310EBB4A03022D0E
:102EA70024BB4C028050BB4F0302311CBB500302B2
:102EB700307CBB53028077BB5403022D24BB5503E0
:102EC700023124BB580302312CBB5A03022D2402C2
:102ED700313C9004597401F0022D2490045B740175
:102EE700F0022D2490045C7401F0022D2490045EFE
:102EF7007401F0022D2490045F7401F0022D2490D8
:102F0700045EE0600E900456E014F9F0900469E75F
:102F1700F0800F900456E024FEFFF08F01900469C3
:102F2700E7F0900469E0F582122BA702314B900479
:102F370056E024FDFFF08F018705098706098707FB
:102F47001919900445EDF0EEA3F0EFA3F08D828EF2
:102F5700838FF012357F85820985830A900465E0A7
:102F6700FAA3E0FDBAFF0DBDFF0A900465E509F07D
:102F7700E50AA3F0900459E0704B900463E0FAA3CC
:102F8700E0FDC3E5099AE50A9D503A900463EAC358
:102F97009509F0ED950AA3F0900463E0FAA3E0FD2C
:102FA7008A068D071ABAFF011DEE4F601075822041
:102FB700C005C002122BA7D002D00580E39004639E
:102FC700EAF0EDA3F0900465E0F50CA3E0F50D90B1
:102FD7000445E0FAA3E0FDA3E0FF8A828D838FF02A
:102FE7001235B7F50B603CC3E4950C7480850DF082
:102FF70063F08095F0502C150C74FFB50C02150D7D
:10300700850B82122BA7900445E0FAA3E0FDA3E00D
:10301700FF0ABA00010D900445EAF0EDA3F0EFA313
:10302700F080AC900459E0700302314B900463E0E8
:10303700FEA3E0FFC3E5099EE50A9F400302314B6B
:10304700900463EEC39509F0EF950AA3F09004632B
:10305700E0FEA3E0FF8E028F051EBEFF011FEA4DB3
:103067007003023143758220C007C006122BA7D018
:1030770006D00780E0900456E024FDFDF08D01871F
:103087000E09870F0987101919900445E50EF0E519
:103097000FA3F0E510A3F0900447E0FDBD800040CA
:1030A700089004697443F08020BD600040089004D4
:1030B700697450F08013BD4000400890046974495A
:1030C700F080069004697458F0900469E0FDF58279
:1030D700C005122BA775823A122BA7758230122BC7
:1030E700A7758278122BA7D005BD4902800EBD5067
:1030F700028009900446E0F582122C02900445E014
:10310700F582122C02803D90045D7401F0900462F8
:10311700740AF0802F9004627408F080279004628C
:10312700740AF0801F9004627410F0801790046096
:103137007401F0800F8B82122BA78008900463EE36
:10314700F0EFA3F0900460E06071900456E024FC77
:10315700FFF08F0187030987050987060987071984
:103167001919900445EBF0EDA3F0EEA3F0EFA3F0EF
:103177009004457472F07437A3F07480A3F0900440
:1031870045E0F50EA3E0F50FA3E0F5107401250E59
:10319700FAE4350FFBAF10900445EAF0EBA3F0EF2C
:1031A700A3F0850E82850F838510F01235B7FF7067
:1031B70003022CB68F82122BA780C3900462E070A3
:1031C70003022CB690045EE06047900456E014F9C1
:1031D700F087077E007D007B00900445EFF0EEA3AB
:1031E700F0EDA3F0EBA3F090045DE0600302328EF4
:1031F700900445E0FBA3E0A3E0A3E07D007E007F11
:1032070000900445EBF0EDA3F0EEA3F0EFA3F08000
:103217007690045FE06028900456E024FCFFF08F6E
:10322700018703098705098706098707191919906F
:103237000445EBF0EDA3F0EEA3F0EFA3F080489088
:103247000456E024FEFFF08F01870609870719EF70
:103257003395E0FDFB900445EEF0EFA3F0EDA3F00E
:10326700EBA3F090045DE0701E900445E0FBA3E043
:10327700FDA3E0A3E07E007F00900445EBF0EDA303
:10328700F0EEA3F0EFA3F090045DE06041900445F9
:10329700E0FBA3E0FDA3E0FEA3E0FF30E72B9004F3
:1032A70045E0FBA3E0FDA3E0FEA3E0FFC3E49BFB37
:1032B700E49DFDE49EFEE49FFF900445EBF0EDA343
:1032C700F0EEA3F0EFA3F0800590045DE4F0900426
:1032D700617401F0900462E0F50C75116F751204CA
:1032E700E4F509F50A900449E4F0850C82122C1ED6
:1032F700900461E07026900449E0C4F50E851182C0
:10330700851283E0FFE50E4207851182851283EF60
:10331700F0151174FFB511021512800C900449E0E5
:10332700FF851182851283F00509E4B50902050AB4
:10333700900461E0B40100E433F0900445E0FAA39F
:10334700E0FBA3E0FEA3E0FFEA4B4E4F709790042B
:1033570070E511F0E512A3F0900467E509F0E50ABE
:10336700A3F0900463E0F5F0A3E045F07009900442
:10337700637401F0E4A3F090045AE0FFE070479013
:103387000459E07041850911850A12900463E0FA37
:10339700A3E0FBC007AF110F8F067F00C3EE9AEFC4
:1033A7009BD0075019758220C007C003C002122B9B
:1033B700A7D002D003D0071ABAFF011B80D590040B
:1033C70063EAF0EBA3F090045DE0602075822DC006
:1033D70007122BA7D007900463E024FFFDA3E03476
:1033E700FFFE900463EDF0EEA3F08056900467E0D3
:1033F700F5F0A3E045F0604A90045BE06020758239
:103407002BC007122BA7D007900463E024FFFDA36E
:10341700E034FFFE900463EDF0EEA3F08024900407
:103427005CE0601E758220C007122BA7D0079004AE
:1034370063E024FFFDA3E034FFFE900463EDF0EEAC
:10344700A3F0900459E07048900467E0F511A3E0F9
:10345700F512900463E0FAA3E0FBC0078A068B0726
:103467001ABAFF011BC3E5119EE5129FD0075053FF
:10347700EF60067D307E0080047D207E008D82C057
:1034870007C003C002122BA7D002D003D00780CAFF
:10349700900463E0FEA3E0FF900467E0F511A3E06A
:1034A700F512C3E5119EE5129F500F900463EEC31A
:1034B7009511F0EF9512A3F08011900463E4F0A347
:1034C700F08008900463EAF0EBA3F0900470E0FE4C
:1034D700A3E0FF900467E0F511A3E0F512AA11AD90
:1034E70012151174FFB511021512EA4D60459004CB
:1034F70061E0B40100E433F0900461E070140EBEA3
:1035070000010F8E828F83E0C4540FFD900449F0B1
:10351700800E8E828F83E0FD53050F900449EDF0F6
:10352700900449E0F582C007C006122BE2D006D00E
:103537000780AA900459E07003022CB6900463E058
:10354700FEA3E0FF8E038F051EBEFF011FEB4D702C
:1035570003022CB6758220C007C006122BA7D0061F
:10356700D00780E08C82122BA7022CB690044AE089
:08357700FEA3E08E82F5832221
:0B3772003C4E4F20464C4F41543E009F
:10357F00AA82AB831235B76003A380F8C3E5829AA2
:10358F00F582E5839BF58322AA83AB828BF09004AF
:10359F0072E0A4F8A9F08AF0E0A429F98BF0A3E077
:0835AF00A429F5838882222281
:0D2111007581131235D3E582600302210EA3
:1035B70020F71430F6148883A88220F507E6A8833D
:1035C70075830022E280F7E49322E02275820022CD
:00000001FF
